{
  "contractName": "SimpleDAO",
  "abi": [
    {
      "constant": true,
      "inputs": [
        {
          "name": "",
          "type": "address"
        }
      ],
      "name": "credit",
      "outputs": [
        {
          "name": "",
          "type": "uint256"
        }
      ],
      "payable": false,
      "stateMutability": "view",
      "type": "function"
    },
    {
      "inputs": [],
      "payable": true,
      "stateMutability": "payable",
      "type": "constructor"
    },
    {
      "payable": true,
      "stateMutability": "payable",
      "type": "fallback"
    },
    {
      "constant": false,
      "inputs": [
        {
          "name": "to",
          "type": "address"
        }
      ],
      "name": "donate",
      "outputs": [],
      "payable": true,
      "stateMutability": "payable",
      "type": "function"
    },
    {
      "constant": false,
      "inputs": [
        {
          "name": "amount",
          "type": "uint256"
        }
      ],
      "name": "withdraw",
      "outputs": [],
      "payable": false,
      "stateMutability": "nonpayable",
      "type": "function"
    },
    {
      "constant": true,
      "inputs": [
        {
          "name": "to",
          "type": "address"
        }
      ],
      "name": "queryCredit",
      "outputs": [
        {
          "name": "",
          "type": "uint256"
        }
      ],
      "payable": false,
      "stateMutability": "view",
      "type": "function"
    },
    {
      "constant": true,
      "inputs": [],
      "name": "queryBalance",
      "outputs": [
        {
          "name": "",
          "type": "uint256"
        }
      ],
      "payable": false,
      "stateMutability": "view",
      "type": "function"
    },
    {
      "constant": true,
      "inputs": [],
      "name": "queryTest",
      "outputs": [
        {
          "name": "",
          "type": "uint256"
        }
      ],
      "payable": false,
      "stateMutability": "pure",
      "type": "function"
    }
  ],
  "bytecode": "0x60806040526103ab806100136000396000f300608060405260043610610077576000357c0100000000000000000000000000000000000000000000000000000000900463ffffffff168062362a95146100795780632e1a7d4d146100af57806336f40c61146100dc57806359f1286d146101075780636bde50de1461015e578063d5d44d8014610189575b005b6100ad600480360381019080803573ffffffffffffffffffffffffffffffffffffffff1690602001909291905050506101e0565b005b3480156100bb57600080fd5b506100da6004803603810190808035906020019092919050505061022f565b005b3480156100e857600080fd5b506100f16102f7565b6040518082815260200191505060405180910390f35b34801561011357600080fd5b50610148600480360381019080803573ffffffffffffffffffffffffffffffffffffffff169060200190929190505050610316565b6040518082815260200191505060405180910390f35b34801561016a57600080fd5b5061017361035e565b6040518082815260200191505060405180910390f35b34801561019557600080fd5b506101ca600480360381019080803573ffffffffffffffffffffffffffffffffffffffff169060200190929190505050610367565b6040518082815260200191505060405180910390f35b346000808373ffffffffffffffffffffffffffffffffffffffff1673ffffffffffffffffffffffffffffffffffffffff1681526020019081526020016000206000828254019250508190555050565b6000816000803373ffffffffffffffffffffffffffffffffffffffff1673ffffffffffffffffffffffffffffffffffffffff168152602001908152602001600020541015156102f3573373ffffffffffffffffffffffffffffffffffffffff168260405160006040518083038185875af1925050509050816000803373ffffffffffffffffffffffffffffffffffffffff1673ffffffffffffffffffffffffffffffffffffffff168152602001908152602001600020600082825403925050819055505b5050565b60003073ffffffffffffffffffffffffffffffffffffffff1631905090565b60008060008373ffffffffffffffffffffffffffffffffffffffff1673ffffffffffffffffffffffffffffffffffffffff168152602001908152602001600020549050919050565b60006003905090565b600060205280600052604060002060009150905054815600a165627a7a723058202813fd55126e5f456e65fafa589b940a1f8744908662e633e8e204a91f77e2360029",
  "source": "pragma solidity ^0.4.24;\n\ncontract SimpleDAO {\n  mapping (address => uint) public credit;\n\n  constructor () public payable { }\n  \n  function donate(address to) public payable {\n    credit[to] += msg.value;\n  }\n  \n  function withdraw(uint amount) public {\n    if (credit[msg.sender]>= amount) {\n      bool res = msg.sender.call.value(amount)();\n      credit[msg.sender]-=amount;\n    }\n  }\n\n  function queryCredit(address to) public view returns (uint){\n    return credit[to];\n  }\n\n  function queryBalance() public view returns (uint) {\n    return address(this).balance;\n  }\n\n  function queryTest() public pure returns (uint){\n    return 3;\n  }\n\n  function() external payable {\n  }\n}\n",
  "sourcePath": "/home/hjwang/Tools/SCFuzzer/test_geth/smartContract/SimpleDao/contracts/SimpleDAO.sol",
  "compiler": {
    "name": "solc",
    "version": "0.4.24+commit.e67f0147.Emscripten.clang"
  },
  "schemaVersion": "2.0.1",
  "updatedAt": "2018-12-20T07:21:10.401Z"
}