{
  "contractName": "Attack_Forwarder0",
  "abi": [
    {
      "constant": true,
      "inputs": [],
      "name": "target_contract",
      "outputs": [
        {
          "name": "",
          "type": "address"
        }
      ],
      "payable": false,
      "stateMutability": "view",
      "type": "function"
    },
    {
      "inputs": [
        {
          "name": "_targetContract",
          "type": "address"
        }
      ],
      "payable": true,
      "stateMutability": "payable",
      "type": "constructor"
    },
    {
      "payable": true,
      "stateMutability": "payable",
      "type": "fallback"
    },
    {
      "constant": false,
      "inputs": [
        {
          "name": "tokenContractAddress",
          "type": "address"
        }
      ],
      "name": "vultron_flushTokens",
      "outputs": [],
      "payable": false,
      "stateMutability": "nonpayable",
      "type": "function"
    },
    {
      "constant": false,
      "inputs": [],
      "name": "vultron_flush",
      "outputs": [],
      "payable": false,
      "stateMutability": "nonpayable",
      "type": "function"
    }
  ],
  "bytecode": "0x60806040526040516020806103e483398101806040528101908080519060200190929190505050806000806101000a81548173ffffffffffffffffffffffffffffffffffffffff021916908373ffffffffffffffffffffffffffffffffffffffff1602179055505061036e806100766000396000f300608060405260043610610057576000357c0100000000000000000000000000000000000000000000000000000000900463ffffffff168063574ffc31146100f65780639f16c69d1461014d578063d44cefc014610164575b6000809054906101000a900473ffffffffffffffffffffffffffffffffffffffff1673ffffffffffffffffffffffffffffffffffffffff16636b9f96ea6040518163ffffffff167c0100000000000000000000000000000000000000000000000000000000028152600401600060405180830381600087803b1580156100dc57600080fd5b505af11580156100f0573d6000803e3d6000fd5b50505050005b34801561010257600080fd5b5061010b6101a7565b604051808273ffffffffffffffffffffffffffffffffffffffff1673ffffffffffffffffffffffffffffffffffffffff16815260200191505060405180910390f35b34801561015957600080fd5b506101626101cc565b005b34801561017057600080fd5b506101a5600480360381019080803573ffffffffffffffffffffffffffffffffffffffff16906020019092919050505061026b565b005b6000809054906101000a900473ffffffffffffffffffffffffffffffffffffffff1681565b6000809054906101000a900473ffffffffffffffffffffffffffffffffffffffff1673ffffffffffffffffffffffffffffffffffffffff16636b9f96ea6040518163ffffffff167c0100000000000000000000000000000000000000000000000000000000028152600401600060405180830381600087803b15801561025157600080fd5b505af1158015610265573d6000803e3d6000fd5b50505050565b6000809054906101000a900473ffffffffffffffffffffffffffffffffffffffff1673ffffffffffffffffffffffffffffffffffffffff16633ef13367826040518263ffffffff167c0100000000000000000000000000000000000000000000000000000000028152600401808273ffffffffffffffffffffffffffffffffffffffff1673ffffffffffffffffffffffffffffffffffffffff168152602001915050600060405180830381600087803b15801561032757600080fd5b505af115801561033b573d6000803e3d6000fd5b50505050505600a165627a7a72305820f3d8571f5d0202e8903b3202598f9ecf401372bacea9c39c9df80d34f0dcf8e50029",
  "source": "pragma solidity ^0.4.19;\n\nimport \"/home/osboxes/vultron/contracts/Forwarder.sol\";\n\ncontract Attack_Forwarder0 {\n\n  Forwarder public target_contract;\n\n  function Attack_Forwarder0(address _targetContract) public payable {\n      target_contract = Forwarder(_targetContract);\n  } \n\n  function vultron_flushTokens(address tokenContractAddress) public {\n    target_contract.flushTokens(tokenContractAddress);\n  } \n\n  function vultron_flush() public {\n    target_contract.flush();\n  } \n\n      function() public payable {\n        \n        target_contract.flush();\n      }\n      } \n",
  "sourcePath": "/home/osboxes/vultron/contracts/Attack_Forwarder0.sol",
  "compiler": {
    "name": "solc",
    "version": "0.4.25+commit.59dbf8f1.Emscripten.clang"
  },
  "schemaVersion": "2.0.1",
  "updatedAt": "2019-09-13T09:06:21.931Z"
}