{
  "contractName": "Attack_PIGGY_BANK1",
  "abi": [
    {
      "constant": true,
      "inputs": [],
      "name": "target_contract",
      "outputs": [
        {
          "name": "",
          "type": "address"
        }
      ],
      "payable": false,
      "stateMutability": "view",
      "type": "function"
    },
    {
      "inputs": [
        {
          "name": "_targetContract",
          "type": "address"
        }
      ],
      "payable": true,
      "stateMutability": "payable",
      "type": "constructor"
    },
    {
      "payable": true,
      "stateMutability": "payable",
      "type": "fallback"
    },
    {
      "constant": false,
      "inputs": [
        {
          "name": "vultron_amount",
          "type": "uint256"
        },
        {
          "name": "to",
          "type": "address"
        }
      ],
      "name": "vultron_Put",
      "outputs": [],
      "payable": true,
      "stateMutability": "payable",
      "type": "function"
    },
    {
      "constant": false,
      "inputs": [
        {
          "name": "vultron_amount",
          "type": "uint256"
        },
        {
          "name": "_am",
          "type": "uint256"
        }
      ],
      "name": "vultron_Collect",
      "outputs": [],
      "payable": true,
      "stateMutability": "payable",
      "type": "function"
    }
  ],
  "bytecode": "0x608060405260405160208061036a83398101806040528101908080519060200190929190505050806000806101000a81548173ffffffffffffffffffffffffffffffffffffffff021916908373ffffffffffffffffffffffffffffffffffffffff160217905550506102f4806100766000396000f300608060405260043610610057576000357c0100000000000000000000000000000000000000000000000000000000900463ffffffff16806318b506071461005c578063574ffc3114610086578063c474e3d2146100dd575b600080fd5b610084600480360381019080803590602001909291908035906020019092919050505061011d565b005b34801561009257600080fd5b5061009b6101ca565b604051808273ffffffffffffffffffffffffffffffffffffffff1673ffffffffffffffffffffffffffffffffffffffff16815260200191505060405180910390f35b61011b60048036038101908080359060200190929190803573ffffffffffffffffffffffffffffffffffffffff1690602001909291905050506101ef565b005b6000809054906101000a900473ffffffffffffffffffffffffffffffffffffffff1673ffffffffffffffffffffffffffffffffffffffff16633fe4382283836040518363ffffffff167c0100000000000000000000000000000000000000000000000000000000028152600401808281526020019150506000604051808303818588803b1580156101ad57600080fd5b505af11580156101c1573d6000803e3d6000fd5b50505050505050565b6000809054906101000a900473ffffffffffffffffffffffffffffffffffffffff1681565b6000809054906101000a900473ffffffffffffffffffffffffffffffffffffffff1673ffffffffffffffffffffffffffffffffffffffff1663e5b5fe7283836040518363ffffffff167c0100000000000000000000000000000000000000000000000000000000028152600401808273ffffffffffffffffffffffffffffffffffffffff1673ffffffffffffffffffffffffffffffffffffffff1681526020019150506000604051808303818588803b1580156102ab57600080fd5b505af11580156102bf573d6000803e3d6000fd5b505050505050505600a165627a7a7230582044f570dc6936b7cabd14b48e760612cc3c9b7e9c882f7d08f9d84df76e7b3edb0029",
  "source": "pragma solidity ^0.4.19;\n\nimport \"/home/liuye/Webank/vultron/contracts/PIGGY_BANK.sol\";\n\ncontract Attack_PIGGY_BANK1 {\n\n  PIGGY_BANK public target_contract;\n\n  function Attack_PIGGY_BANK1(address _targetContract) public payable {\n      target_contract = PIGGY_BANK(_targetContract);\n  } \n\n  function vultron_Put(uint256 vultron_amount, address to) public payable{\n    target_contract.Put.value(vultron_amount)(to);\n  } \n\n  function vultron_Collect(uint256 vultron_amount, uint256 _am) public payable{\n    target_contract.Collect.value(vultron_amount)(_am);\n  } \n\n  function() public payable {\n    revert();\n  }\n} \n",
  "sourcePath": "/home/liuye/Webank/vultron/contracts/Attack_PIGGY_BANK1.sol",
  "compiler": {
    "name": "solc",
    "version": "0.4.26+commit.4563c3fc.Emscripten.clang"
  },
  "schemaVersion": "2.0.0",
  "updatedAt": "2020-05-01T07:32:40.486Z"
}