{
  "contractName": "Attack_ETH_VAULT2",
  "abi": [
    {
      "constant": true,
      "inputs": [],
      "name": "target_contract",
      "outputs": [
        {
          "name": "",
          "type": "address"
        }
      ],
      "payable": false,
      "stateMutability": "view",
      "type": "function"
    },
    {
      "inputs": [
        {
          "name": "_targetContract",
          "type": "address"
        }
      ],
      "payable": true,
      "stateMutability": "payable",
      "type": "constructor"
    },
    {
      "payable": true,
      "stateMutability": "payable",
      "type": "fallback"
    },
    {
      "constant": false,
      "inputs": [
        {
          "name": "vultron_amount",
          "type": "uint256"
        }
      ],
      "name": "vultron_Deposit",
      "outputs": [],
      "payable": true,
      "stateMutability": "payable",
      "type": "function"
    },
    {
      "constant": false,
      "inputs": [
        {
          "name": "vultron_amount",
          "type": "uint256"
        },
        {
          "name": "_am",
          "type": "uint256"
        }
      ],
      "name": "vultron_CashOut",
      "outputs": [],
      "payable": true,
      "stateMutability": "payable",
      "type": "function"
    }
  ],
  "bytecode": "0x608060405260405160208061031283398101806040528101908080519060200190929190505050806000806101000a81548173ffffffffffffffffffffffffffffffffffffffff021916908373ffffffffffffffffffffffffffffffffffffffff1602179055505061029c806100766000396000f300608060405260043610610057576000357c0100000000000000000000000000000000000000000000000000000000900463ffffffff16806351d2e0671461005c578063574ffc311461007c5780639b7a71b9146100d3575b600080fd5b61007a600480360381019080803590602001909291905050506100fd565b005b34801561008857600080fd5b5061009161019e565b604051808273ffffffffffffffffffffffffffffffffffffffff1673ffffffffffffffffffffffffffffffffffffffff16815260200191505060405180910390f35b6100fb60048036038101908080359060200190929190803590602001909291905050506101c3565b005b6000809054906101000a900473ffffffffffffffffffffffffffffffffffffffff1673ffffffffffffffffffffffffffffffffffffffff1663ed21248c826040518263ffffffff167c01000000000000000000000000000000000000000000000000000000000281526004016000604051808303818588803b15801561018257600080fd5b505af1158015610196573d6000803e3d6000fd5b505050505050565b6000809054906101000a900473ffffffffffffffffffffffffffffffffffffffff1681565b6000809054906101000a900473ffffffffffffffffffffffffffffffffffffffff1673ffffffffffffffffffffffffffffffffffffffff16639ffa071183836040518363ffffffff167c0100000000000000000000000000000000000000000000000000000000028152600401808281526020019150506000604051808303818588803b15801561025357600080fd5b505af1158015610267573d6000803e3d6000fd5b505050505050505600a165627a7a723058206c01718d015e156386da1760dce5d9b7b819fb51e2161841d0dc8124d4bdbf010029",
  "source": "pragma solidity ^0.4.19;\n\nimport \"/home/osboxes/vultron/contracts/ETH_VAULT.sol\";\n\ncontract Attack_ETH_VAULT2 {\n\n  ETH_VAULT public target_contract;\n\n  function Attack_ETH_VAULT2(address _targetContract) public payable {\n      target_contract = ETH_VAULT(_targetContract);\n  } \n\n  function vultron_Deposit(uint256 vultron_amount) public payable{\n    target_contract.Deposit.value(vultron_amount)();\n  } \n\n  function vultron_CashOut(uint256 vultron_amount, uint256 _am) public payable{\n    target_contract.CashOut.value(vultron_amount)(_am);\n  } \n\n  function() public payable {\n    revert();\n  }\n} \n",
  "sourcePath": "/home/osboxes/vultron/contracts/Attack_ETH_VAULT2.sol",
  "compiler": {
    "name": "solc",
    "version": "0.4.25+commit.59dbf8f1.Emscripten.clang"
  },
  "schemaVersion": "2.0.1",
  "updatedAt": "2019-09-13T09:06:18.101Z"
}