{
  "contractName": "BountyHunt",
  "abi": [
    {
      "constant": true,
      "inputs": [
        {
          "name": "",
          "type": "address"
        }
      ],
      "name": "bountyAmount",
      "outputs": [
        {
          "name": "",
          "type": "uint256"
        }
      ],
      "payable": false,
      "stateMutability": "view",
      "type": "function"
    },
    {
      "constant": true,
      "inputs": [],
      "name": "totalBountyAmount",
      "outputs": [
        {
          "name": "",
          "type": "uint256"
        }
      ],
      "payable": false,
      "stateMutability": "view",
      "type": "function"
    },
    {
      "constant": false,
      "inputs": [
        {
          "name": "beneficiary",
          "type": "address"
        },
        {
          "name": "amount",
          "type": "uint256"
        }
      ],
      "name": "grantBounty",
      "outputs": [],
      "payable": true,
      "stateMutability": "payable",
      "type": "function"
    },
    {
      "constant": false,
      "inputs": [],
      "name": "claimBounty",
      "outputs": [],
      "payable": false,
      "stateMutability": "nonpayable",
      "type": "function"
    },
    {
      "constant": false,
      "inputs": [
        {
          "name": "to",
          "type": "address"
        },
        {
          "name": "value",
          "type": "uint256"
        }
      ],
      "name": "transferBounty",
      "outputs": [],
      "payable": false,
      "stateMutability": "nonpayable",
      "type": "function"
    }
  ],
  "bytecode": "0x608060405234801561001057600080fd5b50610464806100206000396000f30060806040526004361061006d576000357c0100000000000000000000000000000000000000000000000000000000900463ffffffff1680632f7442bb14610072578063ab6b7e22146100bf578063d1d2ac61146100ff578063de72b83d14610156578063ee4be28814610181575b600080fd5b34801561007e57600080fd5b506100bd600480360381019080803573ffffffffffffffffffffffffffffffffffffffff16906020019092919080359060200190929190505050610198565b005b6100fd600480360381019080803573ffffffffffffffffffffffffffffffffffffffff169060200190929190803590602001909291905050506102a2565b005b34801561010b57600080fd5b50610140600480360381019080803573ffffffffffffffffffffffffffffffffffffffff169060200190929190505050610328565b6040518082815260200191505060405180910390f35b34801561016257600080fd5b5061016b610340565b6040518082815260200191505060405180910390f35b34801561018d57600080fd5b50610196610346565b005b806000803373ffffffffffffffffffffffffffffffffffffffff1673ffffffffffffffffffffffffffffffffffffffff1681526020019081526020016000205410151561027857806000808473ffffffffffffffffffffffffffffffffffffffff1673ffffffffffffffffffffffffffffffffffffffff16815260200190815260200160002060008282540192505081905550806000803373ffffffffffffffffffffffffffffffffffffffff1673ffffffffffffffffffffffffffffffffffffffff168152602001908152602001600020600082825403925050819055505b6001543073ffffffffffffffffffffffffffffffffffffffff1631101561029e57600080fd5b5050565b806000808473ffffffffffffffffffffffffffffffffffffffff1673ffffffffffffffffffffffffffffffffffffffff16815260200190815260200160002060008282540192505081905550806001600082825401925050819055506001543073ffffffffffffffffffffffffffffffffffffffff1631101561032457600080fd5b5050565b60006020528060005260406000206000915090505481565b60015481565b60008060003373ffffffffffffffffffffffffffffffffffffffff1673ffffffffffffffffffffffffffffffffffffffff1681526020019081526020016000205490503373ffffffffffffffffffffffffffffffffffffffff168160405160006040518083038185875af1925050501561040f578060016000828254039250508190555060008060003373ffffffffffffffffffffffffffffffffffffffff1673ffffffffffffffffffffffffffffffffffffffff168152602001908152602001600020819055505b6001543073ffffffffffffffffffffffffffffffffffffffff1631101561043557600080fd5b505600a165627a7a723058204bc98580521d52b8794f33aac243f81bbab31f93e9ad493f274f97679eed16600029",
  "source": "pragma solidity ^0.4.4;\n\ncontract BountyHunt {\n  mapping(address => uint) public bountyAmount;\n  uint public totalBountyAmount;\n\n  modifier preventTheft {\n    _;  \n    if (this.balance < totalBountyAmount) throw;\n  }\n\n  function grantBounty(address beneficiary, uint amount) payable preventTheft {\n    bountyAmount[beneficiary] += amount;\n    totalBountyAmount += amount;\n  }\n\n  function claimBounty() preventTheft {\n    uint balance = bountyAmount[msg.sender];\n    if (msg.sender.call.value(balance)()) {\n      totalBountyAmount -= balance;\n      bountyAmount[msg.sender] = 0;\n    }   \n  }\n\n  function transferBounty(address to, uint value) preventTheft {\n    if (bountyAmount[msg.sender] >= value) {\n      bountyAmount[to] += value;\n      bountyAmount[msg.sender] -= value;\n    }   \n  }\n}",
  "sourcePath": "/home/liuye/Webank/vultron/contracts/BountyHunt.sol",
  "compiler": {
    "name": "solc",
    "version": "0.4.26+commit.4563c3fc.Emscripten.clang"
  },
  "schemaVersion": "2.0.0",
  "updatedAt": "2020-05-01T07:32:10.257Z"
}