{
  "contractName": "ETH_VAULT",
  "abi": [
    {
      "constant": true,
      "inputs": [],
      "name": "MinDeposit",
      "outputs": [
        {
          "name": "",
          "type": "uint256"
        }
      ],
      "payable": false,
      "stateMutability": "view",
      "type": "function"
    },
    {
      "constant": true,
      "inputs": [
        {
          "name": "",
          "type": "address"
        }
      ],
      "name": "balances",
      "outputs": [
        {
          "name": "",
          "type": "uint256"
        }
      ],
      "payable": false,
      "stateMutability": "view",
      "type": "function"
    },
    {
      "inputs": [
        {
          "name": "_log",
          "type": "address"
        }
      ],
      "payable": false,
      "stateMutability": "nonpayable",
      "type": "constructor"
    },
    {
      "payable": true,
      "stateMutability": "payable",
      "type": "fallback"
    },
    {
      "constant": false,
      "inputs": [],
      "name": "Deposit",
      "outputs": [],
      "payable": true,
      "stateMutability": "payable",
      "type": "function"
    },
    {
      "constant": false,
      "inputs": [
        {
          "name": "_am",
          "type": "uint256"
        }
      ],
      "name": "CashOut",
      "outputs": [],
      "payable": true,
      "stateMutability": "payable",
      "type": "function"
    }
  ],
  "bytecode": "0x6080604052670de0b6b3a764000060025534801561001c57600080fd5b506040516020806105388339810180604052810190808051906020019092919050505080600160006101000a81548173ffffffffffffffffffffffffffffffffffffffff021916908373ffffffffffffffffffffffffffffffffffffffff160217905550506104a8806100906000396000f300608060405260043610610062576000357c0100000000000000000000000000000000000000000000000000000000900463ffffffff16806311bcd8301461006457806327e235e31461008f5780639ffa0711146100e6578063ed21248c14610106575b005b34801561007057600080fd5b50610079610110565b6040518082815260200191505060405180910390f35b34801561009b57600080fd5b506100d0600480360381019080803573ffffffffffffffffffffffffffffffffffffffff169060200190929190505050610116565b6040518082815260200191505060405180910390f35b6101046004803603810190808035906020019092919050505061012e565b005b61010e61030d565b005b60025481565b60006020528060005260406000206000915090505481565b6000803373ffffffffffffffffffffffffffffffffffffffff1673ffffffffffffffffffffffffffffffffffffffff168152602001908152602001600020548111151561030a573373ffffffffffffffffffffffffffffffffffffffff168160405160006040518083038185875af1925050501561030957806000803373ffffffffffffffffffffffffffffffffffffffff1673ffffffffffffffffffffffffffffffffffffffff16815260200190815260200160002060008282540392505081905550600160009054906101000a900473ffffffffffffffffffffffffffffffffffffffff1673ffffffffffffffffffffffffffffffffffffffff16634c2f04a433836040518363ffffffff167c0100000000000000000000000000000000000000000000000000000000028152600401808373ffffffffffffffffffffffffffffffffffffffff1673ffffffffffffffffffffffffffffffffffffffff16815260200182815260200180602001828103825260078152602001807f436173684f7574000000000000000000000000000000000000000000000000008152506020019350505050600060405180830381600087803b1580156102f057600080fd5b505af1158015610304573d6000803e3d6000fd5b505050505b5b50565b60025434111561047a57346000803373ffffffffffffffffffffffffffffffffffffffff1673ffffffffffffffffffffffffffffffffffffffff16815260200190815260200160002060008282540192505081905550600160009054906101000a900473ffffffffffffffffffffffffffffffffffffffff1673ffffffffffffffffffffffffffffffffffffffff16634c2f04a433346040518363ffffffff167c0100000000000000000000000000000000000000000000000000000000028152600401808373ffffffffffffffffffffffffffffffffffffffff1673ffffffffffffffffffffffffffffffffffffffff16815260200182815260200180602001828103825260078152602001807f4465706f736974000000000000000000000000000000000000000000000000008152506020019350505050600060405180830381600087803b15801561046157600080fd5b505af1158015610475573d6000803e3d6000fd5b505050505b5600a165627a7a72305820b9f171e0c8d12c1a6517003edc8c0b50980b91d811508b34b74f570fbb18b9c40029",
  "source": "pragma solidity ^0.4.19;\n\ncontract ETH_VAULT\n{\n    mapping (address => uint) public balances;\n    \n    Log TransferLog;\n    \n    uint public MinDeposit = 1 ether;\n    \n    function ETH_VAULT(address _log)\n    public \n    {\n        TransferLog = Log(_log);\n    }\n    \n    function Deposit()\n    public\n    payable\n    {\n        if(msg.value > MinDeposit)\n        {\n            balances[msg.sender]+=msg.value;\n            TransferLog.AddMessage(msg.sender,msg.value,\"Deposit\");\n        }\n    }\n    \n    function CashOut(uint _am)\n    public\n    payable\n    {\n        if(_am<=balances[msg.sender])\n        {\n            \n            if(msg.sender.call.value(_am)())\n            {\n                balances[msg.sender]-=_am;\n                TransferLog.AddMessage(msg.sender,_am,\"CashOut\");\n            }\n        }\n    }\n    \n    function() public payable{}    \n    \n}\n\ncontract Log \n{\n   \n    struct Message\n    {\n        address Sender;\n        string  Data;\n        uint Val;\n        uint  Time;\n    }\n    \n    Message[] public History;\n    \n    Message LastMsg;\n    \n    function AddMessage(address _adr,uint _val,string _data)\n    public\n    {\n        LastMsg.Sender = _adr;\n        LastMsg.Time = now;\n        LastMsg.Val = _val;\n        LastMsg.Data = _data;\n        History.push(LastMsg);\n    }\n}",
  "sourcePath": "/home/osboxes/vultron/contracts/ETH_VAULT.sol",
  "compiler": {
    "name": "solc",
    "version": "0.4.25+commit.59dbf8f1.Emscripten.clang"
  },
  "schemaVersion": "2.0.1",
  "updatedAt": "2019-09-13T09:06:18.115Z"
}