{
  "contractName": "Log",
  "abi": [
    {
      "constant": true,
      "inputs": [
        {
          "name": "",
          "type": "uint256"
        }
      ],
      "name": "History",
      "outputs": [
        {
          "name": "Sender",
          "type": "address"
        },
        {
          "name": "Data",
          "type": "string"
        },
        {
          "name": "Val",
          "type": "uint256"
        },
        {
          "name": "Time",
          "type": "uint256"
        }
      ],
      "payable": false,
      "stateMutability": "view",
      "type": "function"
    },
    {
      "constant": false,
      "inputs": [
        {
          "name": "_adr",
          "type": "address"
        },
        {
          "name": "_val",
          "type": "uint256"
        },
        {
          "name": "_data",
          "type": "string"
        }
      ],
      "name": "AddMessage",
      "outputs": [],
      "payable": false,
      "stateMutability": "nonpayable",
      "type": "function"
    }
  ],
  "bytecode": "0x608060405234801561001057600080fd5b50610565806100206000396000f30060806040526004361061004c576000357c0100000000000000000000000000000000000000000000000000000000900463ffffffff1680634c2f04a414610051578063a21f0368146100e4575b600080fd5b34801561005d57600080fd5b506100e2600480360381019080803573ffffffffffffffffffffffffffffffffffffffff16906020019092919080359060200190929190803590602001908201803590602001908080601f01602080910402602001604051908101604052809392919081815260200183838082843782019150505050505091929192905050506101cb565b005b3480156100f057600080fd5b5061010f60048036038101908080359060200190929190505050610316565b604051808573ffffffffffffffffffffffffffffffffffffffff1673ffffffffffffffffffffffffffffffffffffffff16815260200180602001848152602001838152602001828103825285818151815260200191508051906020019080838360005b8381101561018d578082015181840152602081019050610172565b50505050905090810190601f1680156101ba5780820380516001836020036101000a031916815260200191505b509550505050505060405180910390f35b82600160000160006101000a81548173ffffffffffffffffffffffffffffffffffffffff021916908373ffffffffffffffffffffffffffffffffffffffff16021790555042600160030181905550816001600201819055508060018001908051906020019061023b92919061040d565b5060006001908060018154018082558091505090600182039060005260206000209060040201600090919290919091506000820160009054906101000a900473ffffffffffffffffffffffffffffffffffffffff168160000160006101000a81548173ffffffffffffffffffffffffffffffffffffffff021916908373ffffffffffffffffffffffffffffffffffffffff160217905550600182018160010190805460018160011615610100020316600290046102f992919061048d565b506002820154816002015560038201548160030155505050505050565b60008181548110151561032557fe5b90600052602060002090600402016000915090508060000160009054906101000a900473ffffffffffffffffffffffffffffffffffffffff1690806001018054600181600116156101000203166002900480601f0160208091040260200160405190810160405280929190818152602001828054600181600116156101000203166002900480156103f75780601f106103cc576101008083540402835291602001916103f7565b820191906000526020600020905b8154815290600101906020018083116103da57829003601f168201915b5050505050908060020154908060030154905084565b828054600181600116156101000203166002900490600052602060002090601f016020900481019282601f1061044e57805160ff191683800117855561047c565b8280016001018555821561047c579182015b8281111561047b578251825591602001919060010190610460565b5b5090506104899190610514565b5090565b828054600181600116156101000203166002900490600052602060002090601f016020900481019282601f106104c65780548555610503565b8280016001018555821561050357600052602060002091601f016020900482015b828111156105025782548255916001019190600101906104e7565b5b5090506105109190610514565b5090565b61053691905b8082111561053257600081600090555060010161051a565b5090565b905600a165627a7a72305820aa2c2b105790410a6e09f369578e3fe43d8cbcdaed2aa22063da60b78927d6ab0029",
  "source": "pragma solidity ^0.4.19;\n\ncontract PIGGY_BANK\n{\n    mapping (address => uint) public Accounts;\n    \n    uint public MinSum = 1 ether;\n    \n    Log LogFile;\n    \n    uint putBlock;\n    \n    function PIGGY_BANK(address _log)\n    public \n    {\n        LogFile = Log(_log);\n    }\n    \n    function Put(address to)\n    public\n    payable\n    {\n        Accounts[to]+=msg.value;\n        LogFile.AddMessage(msg.sender,msg.value,\"Put\");\n        putBlock = block.number;\n    }\n    \n    function Collect(uint _am)\n    public\n    payable\n    {\n        if(Accounts[msg.sender]>=MinSum && _am<=Accounts[msg.sender] && block.number>putBlock)\n        {\n            if(msg.sender.call.value(_am)())\n            {\n                Accounts[msg.sender]-=_am;\n                LogFile.AddMessage(msg.sender,_am,\"Collect\");\n            }\n        }\n    }\n    \n    function() \n    public \n    payable\n    {\n        Put(msg.sender);\n    }    \n    \n}\n\ncontract Log \n{\n    struct Message\n    {\n        address Sender;\n        string  Data;\n        uint Val;\n        uint  Time;\n    }\n    \n    Message[] public History;\n    \n    Message LastMsg;\n    \n    function AddMessage(address _adr,uint _val,string _data)\n    public\n    {\n        LastMsg.Sender = _adr;\n        LastMsg.Time = now;\n        LastMsg.Val = _val;\n        LastMsg.Data = _data;\n        History.push(LastMsg);\n    }\n}",
  "sourcePath": "/home/liuye/Webank/vultron/contracts/PIGGY_BANK.sol",
  "compiler": {
    "name": "solc",
    "version": "0.4.26+commit.4563c3fc.Emscripten.clang"
  },
  "schemaVersion": "2.0.0",
  "updatedAt": "2020-05-01T07:32:40.474Z"
}