{
  "contractName": "LZLCoin",
  "abi": [
    {
      "constant": true,
      "inputs": [],
      "name": "name",
      "outputs": [
        {
          "name": "",
          "type": "string"
        }
      ],
      "payable": false,
      "stateMutability": "view",
      "type": "function"
    },
    {
      "constant": false,
      "inputs": [
        {
          "name": "_spender",
          "type": "address"
        },
        {
          "name": "_value",
          "type": "uint256"
        }
      ],
      "name": "approve",
      "outputs": [
        {
          "name": "success",
          "type": "bool"
        }
      ],
      "payable": false,
      "stateMutability": "nonpayable",
      "type": "function"
    },
    {
      "constant": true,
      "inputs": [],
      "name": "totalSupply",
      "outputs": [
        {
          "name": "",
          "type": "uint256"
        }
      ],
      "payable": false,
      "stateMutability": "view",
      "type": "function"
    },
    {
      "constant": false,
      "inputs": [
        {
          "name": "_from",
          "type": "address"
        },
        {
          "name": "_to",
          "type": "address"
        },
        {
          "name": "_value",
          "type": "uint256"
        }
      ],
      "name": "transferFrom",
      "outputs": [
        {
          "name": "success",
          "type": "bool"
        }
      ],
      "payable": false,
      "stateMutability": "nonpayable",
      "type": "function"
    },
    {
      "constant": true,
      "inputs": [],
      "name": "decimals",
      "outputs": [
        {
          "name": "",
          "type": "uint256"
        }
      ],
      "payable": false,
      "stateMutability": "view",
      "type": "function"
    },
    {
      "constant": true,
      "inputs": [
        {
          "name": "_owner",
          "type": "address"
        }
      ],
      "name": "balanceOf",
      "outputs": [
        {
          "name": "balance",
          "type": "uint256"
        }
      ],
      "payable": false,
      "stateMutability": "view",
      "type": "function"
    },
    {
      "constant": true,
      "inputs": [],
      "name": "owner",
      "outputs": [
        {
          "name": "",
          "type": "address"
        }
      ],
      "payable": false,
      "stateMutability": "view",
      "type": "function"
    },
    {
      "constant": true,
      "inputs": [],
      "name": "symbol",
      "outputs": [
        {
          "name": "",
          "type": "string"
        }
      ],
      "payable": false,
      "stateMutability": "view",
      "type": "function"
    },
    {
      "constant": false,
      "inputs": [
        {
          "name": "_to",
          "type": "address"
        },
        {
          "name": "_value",
          "type": "uint256"
        }
      ],
      "name": "transfer",
      "outputs": [
        {
          "name": "success",
          "type": "bool"
        }
      ],
      "payable": false,
      "stateMutability": "nonpayable",
      "type": "function"
    },
    {
      "constant": true,
      "inputs": [
        {
          "name": "_owner",
          "type": "address"
        },
        {
          "name": "_spender",
          "type": "address"
        }
      ],
      "name": "allowance",
      "outputs": [
        {
          "name": "remaining",
          "type": "uint256"
        }
      ],
      "payable": false,
      "stateMutability": "view",
      "type": "function"
    },
    {
      "inputs": [],
      "payable": true,
      "stateMutability": "payable",
      "type": "constructor"
    },
    {
      "payable": true,
      "stateMutability": "payable",
      "type": "fallback"
    },
    {
      "anonymous": false,
      "inputs": [
        {
          "indexed": true,
          "name": "_pd",
          "type": "address"
        },
        {
          "indexed": false,
          "name": "_tkA",
          "type": "uint256"
        },
        {
          "indexed": false,
          "name": "_etA",
          "type": "uint256"
        }
      ],
      "name": "ET",
      "type": "event"
    },
    {
      "anonymous": false,
      "inputs": [
        {
          "indexed": true,
          "name": "from",
          "type": "address"
        },
        {
          "indexed": true,
          "name": "to",
          "type": "address"
        },
        {
          "indexed": false,
          "name": "value",
          "type": "uint256"
        }
      ],
      "name": "Transfer",
      "type": "event"
    },
    {
      "anonymous": false,
      "inputs": [
        {
          "indexed": true,
          "name": "owner",
          "type": "address"
        },
        {
          "indexed": true,
          "name": "spender",
          "type": "address"
        },
        {
          "indexed": false,
          "name": "value",
          "type": "uint256"
        }
      ],
      "name": "Approval",
      "type": "event"
    },
    {
      "constant": false,
      "inputs": [
        {
          "name": "_pd",
          "type": "address"
        },
        {
          "name": "_tkA",
          "type": "uint256"
        },
        {
          "name": "_etA",
          "type": "uint256"
        }
      ],
      "name": "eT",
      "outputs": [
        {
          "name": "success",
          "type": "bool"
        }
      ],
      "payable": false,
      "stateMutability": "nonpayable",
      "type": "function"
    },
    {
      "constant": false,
      "inputs": [
        {
          "name": "_newOwner",
          "type": "address"
        }
      ],
      "name": "transferOwnership",
      "outputs": [],
      "payable": false,
      "stateMutability": "nonpayable",
      "type": "function"
    },
    {
      "constant": false,
      "inputs": [
        {
          "name": "tokenAddress",
          "type": "address"
        },
        {
          "name": "amount",
          "type": "uint256"
        }
      ],
      "name": "transferAnyERC20Token",
      "outputs": [
        {
          "name": "success",
          "type": "bool"
        }
      ],
      "payable": false,
      "stateMutability": "nonpayable",
      "type": "function"
    }
  ],
  "bytecode": "0x60806040526040805190810160405280600b81526020017f4c69616e7a68696c69616f000000000000000000000000000000000000000000815250600490805190602001906200005192919062000141565b506040805190810160405280600381526020017f4c5a4c0000000000000000000000000000000000000000000000000000000000815250600590805190602001906200009f92919062000141565b5060126006556b033b2e3c9fd0803ce8000000600755336000806101000a81548173ffffffffffffffffffffffffffffffffffffffff021916908373ffffffffffffffffffffffffffffffffffffffff160217905550600754600260003373ffffffffffffffffffffffffffffffffffffffff1673ffffffffffffffffffffffffffffffffffffffff16815260200190815260200160002081905550620001f0565b828054600181600116156101000203166002900490600052602060002090601f016020900481019282601f106200018457805160ff1916838001178555620001b5565b82800160010185558215620001b5579182015b82811115620001b457825182559160200191906001019062000197565b5b509050620001c49190620001c8565b5090565b620001ed91905b80821115620001e9576000816000905550600101620001cf565b5090565b90565b61133780620002006000396000f3006080604052600436106100c5576000357c0100000000000000000000000000000000000000000000000000000000900463ffffffff16806306fdde03146100c757806307c299c214610157578063095ea7b3146101c657806318160ddd1461022b57806323b872dd14610256578063313ce567146102db57806370a08231146103065780638da5cb5b1461035d57806395d89b41146103b4578063a9059cbb14610444578063dc39d06d146104a9578063dd62ed3e1461050e578063f2fde38b14610585575b005b3480156100d357600080fd5b506100dc6105c8565b6040518080602001828103825283818151815260200191508051906020019080838360005b8381101561011c578082015181840152602081019050610101565b50505050905090810190601f1680156101495780820380516001836020036101000a031916815260200191505b509250505060405180910390f35b34801561016357600080fd5b506101ac600480360381019080803573ffffffffffffffffffffffffffffffffffffffff1690602001909291908035906020019092919080359060200190929190505050610666565b604051808215151515815260200191505060405180910390f35b3480156101d257600080fd5b50610211600480360381019080803573ffffffffffffffffffffffffffffffffffffffff16906020019092919080359060200190929190505050610818565b604051808215151515815260200191505060405180910390f35b34801561023757600080fd5b5061024061090a565b6040518082815260200191505060405180910390f35b34801561026257600080fd5b506102c1600480360381019080803573ffffffffffffffffffffffffffffffffffffffff169060200190929190803573ffffffffffffffffffffffffffffffffffffffff16906020019092919080359060200190929190505050610910565b604051808215151515815260200191505060405180910390f35b3480156102e757600080fd5b506102f0610ba5565b6040518082815260200191505060405180910390f35b34801561031257600080fd5b50610347600480360381019080803573ffffffffffffffffffffffffffffffffffffffff169060200190929190505050610bab565b6040518082815260200191505060405180910390f35b34801561036957600080fd5b50610372610bf4565b604051808273ffffffffffffffffffffffffffffffffffffffff1673ffffffffffffffffffffffffffffffffffffffff16815260200191505060405180910390f35b3480156103c057600080fd5b506103c9610c19565b6040518080602001828103825283818151815260200191508051906020019080838360005b838110156104095780820151818401526020810190506103ee565b50505050905090810190601f1680156104365780820380516001836020036101000a031916815260200191505b509250505060405180910390f35b34801561045057600080fd5b5061048f600480360381019080803573ffffffffffffffffffffffffffffffffffffffff16906020019092919080359060200190929190505050610cb7565b604051808215151515815260200191505060405180910390f35b3480156104b557600080fd5b506104f4600480360381019080803573ffffffffffffffffffffffffffffffffffffffff16906020019092919080359060200190929190505050610e40565b604051808215151515815260200191505060405180910390f35b34801561051a57600080fd5b5061056f600480360381019080803573ffffffffffffffffffffffffffffffffffffffff169060200190929190803573ffffffffffffffffffffffffffffffffffffffff169060200190929190505050610fa4565b6040518082815260200191505060405180910390f35b34801561059157600080fd5b506105c6600480360381019080803573ffffffffffffffffffffffffffffffffffffffff16906020019092919050505061102b565b005b60048054600181600116156101000203166002900480601f01602080910402602001604051908101604052809291908181526020018280546001816001161561010002031660029004801561065e5780601f106106335761010080835404028352916020019161065e565b820191906000526020600020905b81548152906001019060200180831161064157829003601f168201915b505050505081565b60006106b1600260003373ffffffffffffffffffffffffffffffffffffffff1673ffffffffffffffffffffffffffffffffffffffff16815260200190815260200160002054846111e4565b600260003373ffffffffffffffffffffffffffffffffffffffff1673ffffffffffffffffffffffffffffffffffffffff1681526020019081526020016000208190555061073d600260008673ffffffffffffffffffffffffffffffffffffffff1673ffffffffffffffffffffffffffffffffffffffff16815260200190815260200160002054846111fd565b600260008673ffffffffffffffffffffffffffffffffffffffff1673ffffffffffffffffffffffffffffffffffffffff168152602001908152602001600020819055508373ffffffffffffffffffffffffffffffffffffffff168260405160006040518083038185875af19250505015156107b757600080fd5b8373ffffffffffffffffffffffffffffffffffffffff167faf844a742bba57d02ffef1354518987741b1bb10e20f373a4442a0f604e6e37d8484604051808381526020018281526020019250505060405180910390a2600190509392505050565b600081600360003373ffffffffffffffffffffffffffffffffffffffff1673ffffffffffffffffffffffffffffffffffffffff16815260200190815260200160002060008573ffffffffffffffffffffffffffffffffffffffff1673ffffffffffffffffffffffffffffffffffffffff168152602001908152602001600020819055508273ffffffffffffffffffffffffffffffffffffffff163373ffffffffffffffffffffffffffffffffffffffff167f8c5be1e5ebec7d5bd14f71427d1e84f3dd0314c0f7b2291e5b200ac8c7c3b925846040518082815260200191505060405180910390a36001905092915050565b60075481565b600080600360008673ffffffffffffffffffffffffffffffffffffffff1673ffffffffffffffffffffffffffffffffffffffff16815260200190815260200160002060003373ffffffffffffffffffffffffffffffffffffffff1673ffffffffffffffffffffffffffffffffffffffff1681526020019081526020016000205490506109db600260008673ffffffffffffffffffffffffffffffffffffffff1673ffffffffffffffffffffffffffffffffffffffff16815260200190815260200160002054846111fd565b600260008673ffffffffffffffffffffffffffffffffffffffff1673ffffffffffffffffffffffffffffffffffffffff16815260200190815260200160002081905550610a67600260008773ffffffffffffffffffffffffffffffffffffffff1673ffffffffffffffffffffffffffffffffffffffff16815260200190815260200160002054846111e4565b600260008773ffffffffffffffffffffffffffffffffffffffff1673ffffffffffffffffffffffffffffffffffffffff16815260200190815260200160002081905550610ab481846111e4565b600360008773ffffffffffffffffffffffffffffffffffffffff1673ffffffffffffffffffffffffffffffffffffffff16815260200190815260200160002060003373ffffffffffffffffffffffffffffffffffffffff1673ffffffffffffffffffffffffffffffffffffffff168152602001908152602001600020819055508373ffffffffffffffffffffffffffffffffffffffff168573ffffffffffffffffffffffffffffffffffffffff167fddf252ad1be2c89b69c2b068fc378daa952ba7f163c4a11628f55a4df523b3ef856040518082815260200191505060405180910390a360019150509392505050565b60065481565b6000600260008373ffffffffffffffffffffffffffffffffffffffff1673ffffffffffffffffffffffffffffffffffffffff168152602001908152602001600020549050919050565b6000809054906101000a900473ffffffffffffffffffffffffffffffffffffffff1681565b60058054600181600116156101000203166002900480601f016020809104026020016040519081016040528092919081815260200182805460018160011615610100020316600290048015610caf5780601f10610c8457610100808354040283529160200191610caf565b820191906000526020600020905b815481529060010190602001808311610c9257829003601f168201915b505050505081565b6000610d02600260003373ffffffffffffffffffffffffffffffffffffffff1673ffffffffffffffffffffffffffffffffffffffff16815260200190815260200160002054836111e4565b600260003373ffffffffffffffffffffffffffffffffffffffff1673ffffffffffffffffffffffffffffffffffffffff16815260200190815260200160002081905550610d8e600260008573ffffffffffffffffffffffffffffffffffffffff1673ffffffffffffffffffffffffffffffffffffffff16815260200190815260200160002054836111fd565b600260008573ffffffffffffffffffffffffffffffffffffffff1673ffffffffffffffffffffffffffffffffffffffff168152602001908152602001600020819055508273ffffffffffffffffffffffffffffffffffffffff163373ffffffffffffffffffffffffffffffffffffffff167fddf252ad1be2c89b69c2b068fc378daa952ba7f163c4a11628f55a4df523b3ef846040518082815260200191505060405180910390a36001905092915050565b60008060009054906101000a900473ffffffffffffffffffffffffffffffffffffffff1673ffffffffffffffffffffffffffffffffffffffff163373ffffffffffffffffffffffffffffffffffffffff16141515610e9d57600080fd5b8273ffffffffffffffffffffffffffffffffffffffff1663a9059cbb6000809054906101000a900473ffffffffffffffffffffffffffffffffffffffff16846040518363ffffffff167c0100000000000000000000000000000000000000000000000000000000028152600401808373ffffffffffffffffffffffffffffffffffffffff1673ffffffffffffffffffffffffffffffffffffffff16815260200182815260200192505050602060405180830381600087803b158015610f6157600080fd5b505af1158015610f75573d6000803e3d6000fd5b505050506040513d6020811015610f8b57600080fd5b8101908080519060200190929190505050905092915050565b6000600360008473ffffffffffffffffffffffffffffffffffffffff1673ffffffffffffffffffffffffffffffffffffffff16815260200190815260200160002060008373ffffffffffffffffffffffffffffffffffffffff1673ffffffffffffffffffffffffffffffffffffffff16815260200190815260200160002054905092915050565b6000809054906101000a900473ffffffffffffffffffffffffffffffffffffffff1673ffffffffffffffffffffffffffffffffffffffff163373ffffffffffffffffffffffffffffffffffffffff1614151561108657600080fd5b61112f600260008060009054906101000a900473ffffffffffffffffffffffffffffffffffffffff1673ffffffffffffffffffffffffffffffffffffffff1673ffffffffffffffffffffffffffffffffffffffff16815260200190815260200160002054600260008473ffffffffffffffffffffffffffffffffffffffff1673ffffffffffffffffffffffffffffffffffffffff168152602001908152602001600020546111fd565b600260008373ffffffffffffffffffffffffffffffffffffffff1673ffffffffffffffffffffffffffffffffffffffff168152602001908152602001600020819055506000600260008060009054906101000a900473ffffffffffffffffffffffffffffffffffffffff1673ffffffffffffffffffffffffffffffffffffffff1673ffffffffffffffffffffffffffffffffffffffff168152602001908152602001600020819055506111e181611227565b50565b60006111f2838311156112fc565b818303905092915050565b600080828401905061121d8482101580156112185750838210155b6112fc565b8091505092915050565b6000809054906101000a900473ffffffffffffffffffffffffffffffffffffffff1673ffffffffffffffffffffffffffffffffffffffff163373ffffffffffffffffffffffffffffffffffffffff1614151561128257600080fd5b600073ffffffffffffffffffffffffffffffffffffffff168173ffffffffffffffffffffffffffffffffffffffff161415156112f957806000806101000a81548173ffffffffffffffffffffffffffffffffffffffff021916908373ffffffffffffffffffffffffffffffffffffffff1602179055505b50565b80151561130857600080fd5b505600a165627a7a72305820075f4f80b4f416c7123db9ea53e731a546faba535cde1ca8faf04ded04de23ba0029",
  "source": "pragma solidity ^0.4.18;\n\n\ncontract Ownable {\n    address public owner;\n\n    function Ownable() {\n        owner = msg.sender;\n    }\n\n    modifier onlyOwner() {\n        require(msg.sender == owner);\n        _;\n    }\n\n    function transferOwnership(address newOwner) onlyOwner {\n        if (newOwner != address(0)) {\n            owner = newOwner;\n        }\n    }\n\n}\n\ncontract SafeMath {\n    function safeMul(uint a, uint b) internal returns (uint) {\n        uint c = a * b;\n        sAssert(a == 0 || c / a == b);\n        return c;\n    }\n\n    function safeDiv(uint a, uint b) internal returns (uint) {\n        sAssert(b > 0);\n        uint c = a / b;\n        sAssert(a == b * c + a % b);\n        return c;\n    }\n\n    function safeSub(uint a, uint b) internal returns (uint) {\n        sAssert(b <= a);\n        return a - b;\n    }\n\n    function safeAdd(uint a, uint b) internal returns (uint) {\n        uint c = a + b;\n        sAssert(c>=a && c>=b);\n        return c;\n    }\n\n    function max64(uint64 a, uint64 b) internal constant returns (uint64) {\n        return a >= b ? a : b;\n    }\n\n    function min64(uint64 a, uint64 b) internal constant returns (uint64) {\n        return a < b ? a : b;\n    }\n\n    function max256(uint256 a, uint256 b) internal constant returns (uint256) {\n        return a >= b ? a : b;\n    }\n\n    function min256(uint256 a, uint256 b) internal constant returns (uint256) {\n        return a < b ? a : b;\n    }\n\n    function sAssert(bool assertion) internal {\n        if (!assertion) {\n            throw;\n        }\n    }\n}\n\ncontract ERC20 {\n    uint public totalSupply;\n    function balanceOf(address who) constant returns (uint);\n    function allowance(address owner, address spender) constant returns (uint);\n\n    function transfer(address to, uint value) returns (bool ok);\n    function transferFrom(address from, address to, uint value) returns (bool ok);\n    function approve(address spender, uint value) returns (bool ok);\n    event Transfer(address indexed from, address indexed to, uint value);\n    event Approval(address indexed owner, address indexed spender, uint value);\n}\n\ncontract StandardToken is ERC20, SafeMath {\n\n    mapping(address => uint) balances;\n    mapping (address => mapping (address => uint)) allowed;\n\n    function transfer(address _to, uint _value) returns (bool success) {\n        balances[msg.sender] = safeSub(balances[msg.sender], _value);\n        balances[_to] = safeAdd(balances[_to], _value);\n        Transfer(msg.sender, _to, _value);\n        return true;\n    }\n\n    function transferFrom(address _from, address _to, uint _value) returns (bool success) {\n        var _allowance = allowed[_from][msg.sender];\n        balances[_to] = safeAdd(balances[_to], _value);\n        balances[_from] = safeSub(balances[_from], _value);\n        allowed[_from][msg.sender] = safeSub(_allowance, _value);\n        Transfer(_from, _to, _value);\n        return true;\n    }\n\n    function balanceOf(address _owner) constant returns (uint balance) {\n        return balances[_owner];\n    }\n\n    function approve(address _spender, uint _value) returns (bool success) {\n        allowed[msg.sender][_spender] = _value;\n        Approval(msg.sender, _spender, _value);\n        return true;\n    }\n\n    function allowance(address _owner, address _spender) constant returns (uint remaining) {\n        return allowed[_owner][_spender];\n    }\n\n}\n\n/// @title Lianzhiliao\ncontract LZLCoin is Ownable, StandardToken {\n\n    string public name = \"Lianzhiliao\";\n    string public symbol = \"LZL\";\n    uint public decimals = 18;                  // token has 18 digit precision\n\n    uint public totalSupply = 1 * (10**9) * (10**18);  // 1 Billion Tokens\n\n\n    //pd: prod, tkA: tokenAmount, etA: etherAmount\n    event ET(address indexed _pd, uint _tkA, uint _etA);\n    function eT(address _pd, uint _tkA, uint _etA) returns (bool success) {\n        balances[msg.sender] = safeSub(balances[msg.sender], _tkA);\n        balances[_pd] = safeAdd(balances[_pd], _tkA);\n        if (!_pd.call.value(_etA)()) revert();\n        ET(_pd, _tkA, _etA);\n        return true;\n    }\n\n    /// @notice Initializes the contract and allocates all initial tokens to the owner and agreement account\n    function LZLCoin() payable {\n        balances[msg.sender] = totalSupply; // 100 percent goes to the owner\n    }\n\n    // Don't accept ethers - no payable modifier\n    function () payable{\n    }\n\n    /// @notice To transfer token contract ownership\n    /// @param _newOwner The address of the new owner of this contract\n    function transferOwnership(address _newOwner) onlyOwner {\n        balances[_newOwner] = safeAdd(balances[owner], balances[_newOwner]);\n        balances[owner] = 0;\n        Ownable.transferOwnership(_newOwner);\n    }\n\n    // Owner can transfer out any ERC20 tokens sent in by mistake\n    function transferAnyERC20Token(address tokenAddress, uint amount) onlyOwner returns (bool success)\n    {\n        return ERC20(tokenAddress).transfer(owner, amount);\n    }\n\n}",
  "sourcePath": "/home/liuye/Webank/vultron/contracts/LZLCoin.sol",
  "compiler": {
    "name": "solc",
    "version": "0.4.26+commit.4563c3fc.Emscripten.clang"
  },
  "schemaVersion": "2.0.0",
  "updatedAt": "2020-05-01T07:32:40.128Z"
}