{
  "contractName": "PIGGY_BANK",
  "abi": [
    {
      "constant": true,
      "inputs": [],
      "name": "MinSum",
      "outputs": [
        {
          "name": "",
          "type": "uint256"
        }
      ],
      "payable": false,
      "stateMutability": "view",
      "type": "function"
    },
    {
      "constant": true,
      "inputs": [
        {
          "name": "",
          "type": "address"
        }
      ],
      "name": "Accounts",
      "outputs": [
        {
          "name": "",
          "type": "uint256"
        }
      ],
      "payable": false,
      "stateMutability": "view",
      "type": "function"
    },
    {
      "inputs": [
        {
          "name": "_log",
          "type": "address"
        }
      ],
      "payable": false,
      "stateMutability": "nonpayable",
      "type": "constructor"
    },
    {
      "payable": true,
      "stateMutability": "payable",
      "type": "fallback"
    },
    {
      "constant": false,
      "inputs": [
        {
          "name": "to",
          "type": "address"
        }
      ],
      "name": "Put",
      "outputs": [],
      "payable": true,
      "stateMutability": "payable",
      "type": "function"
    },
    {
      "constant": false,
      "inputs": [
        {
          "name": "_am",
          "type": "uint256"
        }
      ],
      "name": "Collect",
      "outputs": [],
      "payable": true,
      "stateMutability": "payable",
      "type": "function"
    }
  ],
  "bytecode": "0x6080604052670de0b6b3a764000060015534801561001c57600080fd5b506040516020806105c38339810180604052810190808051906020019092919050505080600260006101000a81548173ffffffffffffffffffffffffffffffffffffffff021916908373ffffffffffffffffffffffffffffffffffffffff16021790555050610533806100906000396000f300608060405260043610610062576000357c0100000000000000000000000000000000000000000000000000000000900463ffffffff1680633fe438221461006d578063c2808d1a1461008d578063e203b506146100b8578063e5b5fe721461010f575b61006b33610145565b005b61008b600480360381019080803590602001909291905050506102b1565b005b34801561009957600080fd5b506100a26104e9565b6040518082815260200191505060405180910390f35b3480156100c457600080fd5b506100f9600480360381019080803573ffffffffffffffffffffffffffffffffffffffff1690602001909291905050506104ef565b6040518082815260200191505060405180910390f35b610143600480360381019080803573ffffffffffffffffffffffffffffffffffffffff169060200190929190505050610145565b005b346000808373ffffffffffffffffffffffffffffffffffffffff1673ffffffffffffffffffffffffffffffffffffffff16815260200190815260200160002060008282540192505081905550600260009054906101000a900473ffffffffffffffffffffffffffffffffffffffff1673ffffffffffffffffffffffffffffffffffffffff16634c2f04a433346040518363ffffffff167c0100000000000000000000000000000000000000000000000000000000028152600401808373ffffffffffffffffffffffffffffffffffffffff1673ffffffffffffffffffffffffffffffffffffffff16815260200182815260200180602001828103825260038152602001807f50757400000000000000000000000000000000000000000000000000000000008152506020019350505050600060405180830381600087803b15801561028f57600080fd5b505af11580156102a3573d6000803e3d6000fd5b505050504360038190555050565b6001546000803373ffffffffffffffffffffffffffffffffffffffff1673ffffffffffffffffffffffffffffffffffffffff168152602001908152602001600020541015801561033f57506000803373ffffffffffffffffffffffffffffffffffffffff1673ffffffffffffffffffffffffffffffffffffffff168152602001908152602001600020548111155b801561034c575060035443115b156104e6573373ffffffffffffffffffffffffffffffffffffffff168160405160006040518083038185875af192505050156104e557806000803373ffffffffffffffffffffffffffffffffffffffff1673ffffffffffffffffffffffffffffffffffffffff16815260200190815260200160002060008282540392505081905550600260009054906101000a900473ffffffffffffffffffffffffffffffffffffffff1673ffffffffffffffffffffffffffffffffffffffff16634c2f04a433836040518363ffffffff167c0100000000000000000000000000000000000000000000000000000000028152600401808373ffffffffffffffffffffffffffffffffffffffff1673ffffffffffffffffffffffffffffffffffffffff16815260200182815260200180602001828103825260078152602001807f436f6c6c656374000000000000000000000000000000000000000000000000008152506020019350505050600060405180830381600087803b1580156104cc57600080fd5b505af11580156104e0573d6000803e3d6000fd5b505050505b5b50565b60015481565b600060205280600052604060002060009150905054815600a165627a7a7230582005da5180e7b218d9cf9b01a2657dd8c38c63326be555f645a4807c0d9b4e98c90029",
  "source": "pragma solidity ^0.4.19;\n\ncontract PIGGY_BANK\n{\n    mapping (address => uint) public Accounts;\n    \n    uint public MinSum = 1 ether;\n    \n    Log LogFile;\n    \n    uint putBlock;\n    \n    function PIGGY_BANK(address _log)\n    public \n    {\n        LogFile = Log(_log);\n    }\n    \n    function Put(address to)\n    public\n    payable\n    {\n        Accounts[to]+=msg.value;\n        LogFile.AddMessage(msg.sender,msg.value,\"Put\");\n        putBlock = block.number;\n    }\n    \n    function Collect(uint _am)\n    public\n    payable\n    {\n        if(Accounts[msg.sender]>=MinSum && _am<=Accounts[msg.sender] && block.number>putBlock)\n        {\n            if(msg.sender.call.value(_am)())\n            {\n                Accounts[msg.sender]-=_am;\n                LogFile.AddMessage(msg.sender,_am,\"Collect\");\n            }\n        }\n    }\n    \n    function() \n    public \n    payable\n    {\n        Put(msg.sender);\n    }    \n    \n}\n\ncontract Log \n{\n    struct Message\n    {\n        address Sender;\n        string  Data;\n        uint Val;\n        uint  Time;\n    }\n    \n    Message[] public History;\n    \n    Message LastMsg;\n    \n    function AddMessage(address _adr,uint _val,string _data)\n    public\n    {\n        LastMsg.Sender = _adr;\n        LastMsg.Time = now;\n        LastMsg.Val = _val;\n        LastMsg.Data = _data;\n        History.push(LastMsg);\n    }\n}",
  "sourcePath": "/home/liuye/Webank/vultron/contracts/PIGGY_BANK.sol",
  "compiler": {
    "name": "solc",
    "version": "0.4.26+commit.4563c3fc.Emscripten.clang"
  },
  "schemaVersion": "2.0.0",
  "updatedAt": "2020-05-01T07:32:40.466Z"
}