{
  "contractName": "WalletSimple",
  "abi": [
    {
      "constant": true,
      "inputs": [
        {
          "name": "",
          "type": "uint256"
        }
      ],
      "name": "signers",
      "outputs": [
        {
          "name": "",
          "type": "address"
        }
      ],
      "payable": false,
      "stateMutability": "view",
      "type": "function"
    },
    {
      "constant": true,
      "inputs": [],
      "name": "safeMode",
      "outputs": [
        {
          "name": "",
          "type": "bool"
        }
      ],
      "payable": false,
      "stateMutability": "view",
      "type": "function"
    },
    {
      "inputs": [
        {
          "name": "allowedSigners",
          "type": "address[]"
        }
      ],
      "payable": false,
      "stateMutability": "nonpayable",
      "type": "constructor"
    },
    {
      "payable": true,
      "stateMutability": "payable",
      "type": "fallback"
    },
    {
      "anonymous": false,
      "inputs": [
        {
          "indexed": false,
          "name": "from",
          "type": "address"
        },
        {
          "indexed": false,
          "name": "value",
          "type": "uint256"
        },
        {
          "indexed": false,
          "name": "data",
          "type": "bytes"
        }
      ],
      "name": "Deposited",
      "type": "event"
    },
    {
      "anonymous": false,
      "inputs": [
        {
          "indexed": false,
          "name": "msgSender",
          "type": "address"
        }
      ],
      "name": "SafeModeActivated",
      "type": "event"
    },
    {
      "anonymous": false,
      "inputs": [
        {
          "indexed": false,
          "name": "msgSender",
          "type": "address"
        },
        {
          "indexed": false,
          "name": "otherSigner",
          "type": "address"
        },
        {
          "indexed": false,
          "name": "operation",
          "type": "bytes32"
        },
        {
          "indexed": false,
          "name": "toAddress",
          "type": "address"
        },
        {
          "indexed": false,
          "name": "value",
          "type": "uint256"
        },
        {
          "indexed": false,
          "name": "data",
          "type": "bytes"
        }
      ],
      "name": "Transacted",
      "type": "event"
    },
    {
      "anonymous": false,
      "inputs": [
        {
          "indexed": false,
          "name": "msgSender",
          "type": "address"
        },
        {
          "indexed": false,
          "name": "otherSigner",
          "type": "address"
        },
        {
          "indexed": false,
          "name": "operation",
          "type": "bytes32"
        },
        {
          "indexed": false,
          "name": "toAddress",
          "type": "address"
        },
        {
          "indexed": false,
          "name": "value",
          "type": "uint256"
        },
        {
          "indexed": false,
          "name": "tokenContractAddress",
          "type": "address"
        }
      ],
      "name": "TokenTransacted",
      "type": "event"
    },
    {
      "constant": false,
      "inputs": [],
      "name": "createForwarder",
      "outputs": [
        {
          "name": "",
          "type": "address"
        }
      ],
      "payable": false,
      "stateMutability": "nonpayable",
      "type": "function"
    },
    {
      "constant": false,
      "inputs": [
        {
          "name": "toAddress",
          "type": "address"
        },
        {
          "name": "value",
          "type": "uint256"
        },
        {
          "name": "data",
          "type": "bytes"
        },
        {
          "name": "expireTime",
          "type": "uint256"
        },
        {
          "name": "sequenceId",
          "type": "uint256"
        },
        {
          "name": "signature",
          "type": "bytes"
        }
      ],
      "name": "sendMultiSig",
      "outputs": [],
      "payable": false,
      "stateMutability": "nonpayable",
      "type": "function"
    },
    {
      "constant": false,
      "inputs": [
        {
          "name": "toAddress",
          "type": "address"
        },
        {
          "name": "value",
          "type": "uint256"
        },
        {
          "name": "tokenContractAddress",
          "type": "address"
        },
        {
          "name": "expireTime",
          "type": "uint256"
        },
        {
          "name": "sequenceId",
          "type": "uint256"
        },
        {
          "name": "signature",
          "type": "bytes"
        }
      ],
      "name": "sendMultiSigToken",
      "outputs": [],
      "payable": false,
      "stateMutability": "nonpayable",
      "type": "function"
    },
    {
      "constant": false,
      "inputs": [
        {
          "name": "forwarderAddress",
          "type": "address"
        },
        {
          "name": "tokenContractAddress",
          "type": "address"
        }
      ],
      "name": "flushForwarderTokens",
      "outputs": [],
      "payable": false,
      "stateMutability": "nonpayable",
      "type": "function"
    },
    {
      "constant": false,
      "inputs": [],
      "name": "activateSafeMode",
      "outputs": [],
      "payable": false,
      "stateMutability": "nonpayable",
      "type": "function"
    },
    {
      "constant": false,
      "inputs": [
        {
          "name": "signer",
          "type": "address"
        }
      ],
      "name": "isSigner",
      "outputs": [
        {
          "name": "",
          "type": "bool"
        }
      ],
      "payable": false,
      "stateMutability": "nonpayable",
      "type": "function"
    },
    {
      "constant": false,
      "inputs": [],
      "name": "getNextSequenceId",
      "outputs": [
        {
          "name": "",
          "type": "uint256"
        }
      ],
      "payable": false,
      "stateMutability": "nonpayable",
      "type": "function"
    }
  ],
  "bytecode": "0x60806040526000600160006101000a81548160ff02191690831515021790555034801561002b57600080fd5b506040516117a13803806117a1833981018060405281019080805182019291905050506003815114151561005e57600080fd5b806000908051906020019061007492919061007b565b5050610148565b8280548282559060005260206000209081019282156100f4579160200282015b828111156100f35782518260006101000a81548173ffffffffffffffffffffffffffffffffffffffff021916908373ffffffffffffffffffffffffffffffffffffffff1602179055509160200191906001019061009b565b5b5090506101019190610105565b5090565b61014591905b8082111561014157600081816101000a81549073ffffffffffffffffffffffffffffffffffffffff02191690555060010161010b565b5090565b90565b61164a806101576000396000f300608060405260043610610099576000357c0100000000000000000000000000000000000000000000000000000000900463ffffffff1680630dcd7a6c146101335780632079fb9a146101fa5780632da034091461026757806339125215146102ca5780637df73e27146103b7578063a0b7967b14610412578063a68a76cc1461043d578063abe3219c14610494578063fc0f392d146104c3575b6000341115610131577f6e89d517057028190560dd200cf6bf792842861353d1173761dfa362e1c133f03334600036604051808573ffffffffffffffffffffffffffffffffffffffff1673ffffffffffffffffffffffffffffffffffffffff16815260200184815260200180602001828103825284848281815260200192508082843782019150509550505050505060405180910390a15b005b34801561013f57600080fd5b506101f8600480360381019080803573ffffffffffffffffffffffffffffffffffffffff16906020019092919080359060200190929190803573ffffffffffffffffffffffffffffffffffffffff1690602001909291908035906020019092919080359060200190929190803590602001908201803590602001908080601f01602080910402602001604051908101604052809392919081815260200183838082843782019150505050505091929192905050506104da565b005b34801561020657600080fd5b50610225600480360381019080803590602001909291905050506107e6565b604051808273ffffffffffffffffffffffffffffffffffffffff1673ffffffffffffffffffffffffffffffffffffffff16815260200191505060405180910390f35b34801561027357600080fd5b506102c8600480360381019080803573ffffffffffffffffffffffffffffffffffffffff169060200190929190803573ffffffffffffffffffffffffffffffffffffffff169060200190929190505050610824565b005b3480156102d657600080fd5b506103b5600480360381019080803573ffffffffffffffffffffffffffffffffffffffff16906020019092919080359060200190929190803590602001908201803590602001908080601f01602080910402602001604051908101604052809392919081815260200183838082843782019150505050505091929192908035906020019092919080359060200190929190803590602001908201803590602001908080601f01602080910402602001604051908101604052809392919081815260200183838082843782019150505050505091929192905050506108f5565b005b3480156103c357600080fd5b506103f8600480360381019080803573ffffffffffffffffffffffffffffffffffffffff169060200190929190505050610bf0565b604051808215151515815260200191505060405180910390f35b34801561041e57600080fd5b50610427610c93565b6040518082815260200191505060405180910390f35b34801561044957600080fd5b50610452610ced565b604051808273ffffffffffffffffffffffffffffffffffffffff1673ffffffffffffffffffffffffffffffffffffffff16815260200191505060405180910390f35b3480156104a057600080fd5b506104a9610d2d565b604051808215151515815260200191505060405180910390f35b3480156104cf57600080fd5b506104d8610d40565b005b60008060006104e833610bf0565b15156104f357600080fd5b888888888860405180807f45524332300000000000000000000000000000000000000000000000000000008152506005018673ffffffffffffffffffffffffffffffffffffffff1673ffffffffffffffffffffffffffffffffffffffff166c010000000000000000000000000281526014018581526020018473ffffffffffffffffffffffffffffffffffffffff1673ffffffffffffffffffffffffffffffffffffffff166c0100000000000000000000000002815260140183815260200182815260200195505050505050604051809103902092506105d68984868989610dd3565b91508690508073ffffffffffffffffffffffffffffffffffffffff1663a9059cbb8a8a6040518363ffffffff167c0100000000000000000000000000000000000000000000000000000000028152600401808373ffffffffffffffffffffffffffffffffffffffff1673ffffffffffffffffffffffffffffffffffffffff16815260200182815260200192505050602060405180830381600087803b15801561067e57600080fd5b505af1158015610692573d6000803e3d6000fd5b505050506040513d60208110156106a857600080fd5b810190808051906020019092919050505015156106c457600080fd5b7ff3574a20a6defd7fc26917e8013cdd578db5eaa4d9a3eb54f2bb0983ad8ab40d3383858c8c8c604051808773ffffffffffffffffffffffffffffffffffffffff1673ffffffffffffffffffffffffffffffffffffffff1681526020018673ffffffffffffffffffffffffffffffffffffffff1673ffffffffffffffffffffffffffffffffffffffff16815260200185600019166000191681526020018473ffffffffffffffffffffffffffffffffffffffff1673ffffffffffffffffffffffffffffffffffffffff1681526020018381526020018273ffffffffffffffffffffffffffffffffffffffff1673ffffffffffffffffffffffffffffffffffffffff168152602001965050505050505060405180910390a1505050505050505050565b6000818154811015156107f557fe5b906000526020600020016000915054906101000a900473ffffffffffffffffffffffffffffffffffffffff1681565b600061082f33610bf0565b151561083a57600080fd5b8290508073ffffffffffffffffffffffffffffffffffffffff16633ef13367836040518263ffffffff167c0100000000000000000000000000000000000000000000000000000000028152600401808273ffffffffffffffffffffffffffffffffffffffff1673ffffffffffffffffffffffffffffffffffffffff168152602001915050600060405180830381600087803b1580156108d857600080fd5b505af11580156108ec573d6000803e3d6000fd5b50505050505050565b60008061090133610bf0565b151561090c57600080fd5b878787878760405180807f45544845520000000000000000000000000000000000000000000000000000008152506005018673ffffffffffffffffffffffffffffffffffffffff1673ffffffffffffffffffffffffffffffffffffffff166c0100000000000000000000000002815260140185815260200184805190602001908083835b6020831015156109b55780518252602082019150602081019050602083039250610990565b6001836020036101000a0380198251168184511680821785525050505050509050018381526020018281526020019550505050505060405180910390209150610a018883858888610dd3565b90508773ffffffffffffffffffffffffffffffffffffffff16878760405180828051906020019080838360005b83811015610a49578082015181840152602081019050610a2e565b50505050905090810190601f168015610a765780820380516001836020036101000a031916815260200191505b5091505060006040518083038185875af1925050501515610a9657600080fd5b7f59bed9ab5d78073465dd642a9e3e76dfdb7d53bcae9d09df7d0b8f5234d5a8063382848b8b8b604051808773ffffffffffffffffffffffffffffffffffffffff1673ffffffffffffffffffffffffffffffffffffffff1681526020018673ffffffffffffffffffffffffffffffffffffffff1673ffffffffffffffffffffffffffffffffffffffff16815260200185600019166000191681526020018473ffffffffffffffffffffffffffffffffffffffff1673ffffffffffffffffffffffffffffffffffffffff16815260200183815260200180602001828103825283818151815260200191508051906020019080838360005b83811015610ba7578082015181840152602081019050610b8c565b50505050905090810190601f168015610bd45780820380516001836020036101000a031916815260200191505b5097505050505050505060405180910390a15050505050505050565b600080600090505b600080549050811015610c88578273ffffffffffffffffffffffffffffffffffffffff16600082815481101515610c2b57fe5b9060005260206000200160009054906101000a900473ffffffffffffffffffffffffffffffffffffffff1673ffffffffffffffffffffffffffffffffffffffff161415610c7b5760019150610c8d565b8080600101915050610bf8565b600091505b50919050565b6000806000809150600090505b600a811015610ce25781600282600a81101515610cb957fe5b01541115610cd557600281600a81101515610cd057fe5b015491505b8080600101915050610ca0565b600182019250505090565b6000610cf833610bf0565b1515610d0357600080fd5b610d0b611022565b604051809103906000f080158015610d27573d6000803e3d6000fd5b50905090565b600160009054906101000a900460ff1681565b610d4933610bf0565b1515610d5457600080fd5b60018060006101000a81548160ff0219169083151502179055507f0909e8f76a4fd3e970f2eaef56c0ee6dfaf8b87c5b8d3f56ffce78e825a9115733604051808273ffffffffffffffffffffffffffffffffffffffff1673ffffffffffffffffffffffffffffffffffffffff16815260200191505060405180910390a1565b600080610de08686610e7e565b9050600160009054906101000a900460ff168015610e045750610e0287610bf0565b155b15610e0e57600080fd5b42841015610e1b57600080fd5b610e2483610f4b565b610e2d81610bf0565b1515610e3857600080fd5b3373ffffffffffffffffffffffffffffffffffffffff168173ffffffffffffffffffffffffffffffffffffffff161415610e7157600080fd5b8091505095945050505050565b60008060008060418551141515610e9457600080fd5b602085015192506040850151915060ff6041860151169050601b8160ff161015610ebf57601b810190505b600186828585604051600081526020016040526040518085600019166000191681526020018460ff1660ff1681526020018360001916600019168152602001826000191660001916815260200194505050505060206040516020810390808403906000865af1158015610f36573d6000803e3d6000fd5b50505060206040510351935050505092915050565b600080610f5733610bf0565b1515610f6257600080fd5b60009150600090505b600a811015610fca5782600282600a81101515610f8457fe5b01541415610f9157600080fd5b600282600a81101515610fa057fe5b0154600282600a81101515610fb157fe5b01541015610fbd578091505b8080600101915050610f6b565b600282600a81101515610fd957fe5b0154831015610fe757600080fd5b612710600283600a81101515610ff957fe5b01540183111561100857600080fd5b82600283600a8110151561101857fe5b0181905550505050565b6040516105ec80611033833901905600608060405234801561001057600080fd5b50336000806101000a81548173ffffffffffffffffffffffffffffffffffffffff021916908373ffffffffffffffffffffffffffffffffffffffff16021790555061058c806100606000396000f300608060405260043610610056576000357c0100000000000000000000000000000000000000000000000000000000900463ffffffff168062821de3146101515780633ef13367146101a85780636b9f96ea146101eb575b6000809054906101000a900473ffffffffffffffffffffffffffffffffffffffff1673ffffffffffffffffffffffffffffffffffffffff16346000366040518083838082843782019150509250505060006040518083038185875af19250505015156100c157600080fd5b7f69b31548dea9b3b707b4dff357d326e3e9348b24e7a6080a218a6edeeec48f9b3334600036604051808573ffffffffffffffffffffffffffffffffffffffff1673ffffffffffffffffffffffffffffffffffffffff16815260200184815260200180602001828103825284848281815260200192508082843782019150509550505050505060405180910390a1005b34801561015d57600080fd5b50610166610202565b604051808273ffffffffffffffffffffffffffffffffffffffff1673ffffffffffffffffffffffffffffffffffffffff16815260200191505060405180910390f35b3480156101b457600080fd5b506101e9600480360381019080803573ffffffffffffffffffffffffffffffffffffffff169060200190929190505050610227565b005b3480156101f757600080fd5b506102006104ef565b005b6000809054906101000a900473ffffffffffffffffffffffffffffffffffffffff1681565b60008060008060009054906101000a900473ffffffffffffffffffffffffffffffffffffffff1673ffffffffffffffffffffffffffffffffffffffff163373ffffffffffffffffffffffffffffffffffffffff1614151561028757600080fd5b8392503091508273ffffffffffffffffffffffffffffffffffffffff166370a08231836040518263ffffffff167c0100000000000000000000000000000000000000000000000000000000028152600401808273ffffffffffffffffffffffffffffffffffffffff1673ffffffffffffffffffffffffffffffffffffffff168152602001915050602060405180830381600087803b15801561032857600080fd5b505af115801561033c573d6000803e3d6000fd5b505050506040513d602081101561035257600080fd5b810190808051906020019092919050505090506000811415610373576104e9565b8273ffffffffffffffffffffffffffffffffffffffff1663a9059cbb6000809054906101000a900473ffffffffffffffffffffffffffffffffffffffff16836040518363ffffffff167c0100000000000000000000000000000000000000000000000000000000028152600401808373ffffffffffffffffffffffffffffffffffffffff1673ffffffffffffffffffffffffffffffffffffffff16815260200182815260200192505050602060405180830381600087803b15801561043757600080fd5b505af115801561044b573d6000803e3d6000fd5b505050506040513d602081101561046157600080fd5b8101908080519060200190929190505050151561047d57600080fd5b7f9401e4e79c19cbe2bd774cb70a94ba660e6718be1bac1298ab3b07f454a608218482604051808373ffffffffffffffffffffffffffffffffffffffff1673ffffffffffffffffffffffffffffffffffffffff1681526020018281526020019250505060405180910390a15b50505050565b6000809054906101000a900473ffffffffffffffffffffffffffffffffffffffff1673ffffffffffffffffffffffffffffffffffffffff163073ffffffffffffffffffffffffffffffffffffffff163160405160006040518083038185875af192505050151561055e57600080fd5b5600a165627a7a7230582007b0d8c2df8297ae8db9135392ae2ede986d2ad1d117445e54f78bdc72b920000029a165627a7a72305820001bf5b7c88a44920eae3cca81697c41019253fde6455bd79b8781e49f25f0310029",
  "source": "pragma solidity ^0.4.14;\n\n\ncontract ERC20Interface {\n \n  function transfer(address _to, uint256 _value) returns (bool success);\n  \n  function balanceOf(address _owner) constant returns (uint256 balance);\n}\n\n\ncontract Forwarder {\n \n  address public parentAddress;\n  event ForwarderDeposited(address from, uint value, bytes data);\n\n  event TokensFlushed(\n    address tokenContractAddress, \n    uint value \n  );\n\n \n  function Forwarder() {\n    parentAddress = msg.sender;\n  }\n\n  \n  modifier onlyParent {\n    if (msg.sender != parentAddress) {\n      throw;\n    }\n    _;\n  }\n\n  function() payable {\n    if (!parentAddress.call.value(msg.value)(msg.data))\n      throw;\n    ForwarderDeposited(msg.sender, msg.value, msg.data);\n  }\n\n \n  function flushTokens(address tokenContractAddress) onlyParent {\n    ERC20Interface instance = ERC20Interface(tokenContractAddress);\n    var forwarderAddress = address(this);\n    var forwarderBalance = instance.balanceOf(forwarderAddress);\n    if (forwarderBalance == 0) {\n      return;\n    }\n    if (!instance.transfer(parentAddress, forwarderBalance)) {\n      throw;\n    }\n    TokensFlushed(tokenContractAddress, forwarderBalance);\n  }\n\n  \n  function flush() {\n    if (!parentAddress.call.value(this.balance)())\n      throw;\n  }\n}\n\n\ncontract WalletSimple {\n\n  event Deposited(address from, uint value, bytes data);\n  event SafeModeActivated(address msgSender);\n  event Transacted(\n    address msgSender, \n    address otherSigner, \n    bytes32 operation, \n    address toAddress, \n    uint value,\n    bytes data \n  );\n  event TokenTransacted(\n    address msgSender, \n    address otherSigner, \n    bytes32 operation, \n    address toAddress,\n    uint value, \n    address tokenContractAddress \n  );\n\n\n  address[] public signers; \n  bool public safeMode = false; \n\n\n  uint constant SEQUENCE_ID_WINDOW_SIZE = 10;\n  uint[10] recentSequenceIds;\n\n \n  modifier onlysigner {\n    if (!isSigner(msg.sender)) {\n      throw;\n    }\n    _;\n  }\n\n \n  function WalletSimple(address[] allowedSigners) {\n    if (allowedSigners.length != 3) {\n      throw;\n    }\n    signers = allowedSigners;\n  }\n\n  function() payable {\n    if (msg.value > 0) {\n      Deposited(msg.sender, msg.value, msg.data);\n    }\n  }\n\n  function createForwarder() onlysigner returns (address) {\n    return new Forwarder();\n  }\n\n  function sendMultiSig(address toAddress, uint value, bytes data, uint expireTime, uint sequenceId, bytes signature) onlysigner {\n\n    var operationHash = sha3(\"ETHER\", toAddress, value, data, expireTime, sequenceId);\n    \n    var otherSigner = verifyMultiSig(toAddress, operationHash, signature, expireTime, sequenceId);\n\n    if (!(toAddress.call.value(value)(data))) {\n      throw;\n    }\n    Transacted(msg.sender, otherSigner, operationHash, toAddress, value, data);\n  }\n  \n \n  function sendMultiSigToken(address toAddress, uint value, address tokenContractAddress, uint expireTime, uint sequenceId, bytes signature) onlysigner {\n  \n    var operationHash = sha3(\"ERC20\", toAddress, value, tokenContractAddress, expireTime, sequenceId);\n    \n    var otherSigner = verifyMultiSig(toAddress, operationHash, signature, expireTime, sequenceId);\n    \n    ERC20Interface instance = ERC20Interface(tokenContractAddress);\n    if (!instance.transfer(toAddress, value)) {\n        throw;\n    }\n    TokenTransacted(msg.sender, otherSigner, operationHash, toAddress, value, tokenContractAddress);\n  }\n\n\n  function flushForwarderTokens(address forwarderAddress, address tokenContractAddress) onlysigner {    \n    Forwarder forwarder = Forwarder(forwarderAddress);\n    forwarder.flushTokens(tokenContractAddress);\n  }  \n  \n \n  function verifyMultiSig(address toAddress, bytes32 operationHash, bytes signature, uint expireTime, uint sequenceId) private returns (address) {\n\n    var otherSigner = recoverAddressFromSignature(operationHash, signature);\n\n   \n    if (safeMode && !isSigner(toAddress)) {\n      throw;\n    }\n    if (expireTime < block.timestamp) {\n      throw;\n    }\n    tryInsertSequenceId(sequenceId);\n\n    if (!isSigner(otherSigner)) {\n      throw;\n    }\n    if (otherSigner == msg.sender) {\n      throw;\n    }\n\n    return otherSigner;\n  }\n\n  function activateSafeMode() onlysigner {\n    safeMode = true;\n    SafeModeActivated(msg.sender);\n  }\n\n  function isSigner(address signer) returns (bool) {\n    for (uint i = 0; i < signers.length; i++) {\n      if (signers[i] == signer) {\n        return true;\n      }\n    }\n    return false;\n  }\n\n  function recoverAddressFromSignature(bytes32 operationHash, bytes signature) private returns (address) {\n    if (signature.length != 65) {\n      throw;\n    }\n    bytes32 r;\n    bytes32 s;\n    uint8 v;\n    assembly {\n      r := mload(add(signature, 32))\n      s := mload(add(signature, 64))\n      v := and(mload(add(signature, 65)), 255)\n    }\n    if (v < 27) {\n      v += 27; \n    }\n    return ecrecover(operationHash, v, r, s);\n  }\n\n  function tryInsertSequenceId(uint sequenceId) onlysigner private {\n    uint lowestValueIndex = 0;\n    for (uint i = 0; i < SEQUENCE_ID_WINDOW_SIZE; i++) {\n      if (recentSequenceIds[i] == sequenceId) {\n        throw;\n      }\n      if (recentSequenceIds[i] < recentSequenceIds[lowestValueIndex]) {\n        lowestValueIndex = i;\n      }\n    }\n    if (sequenceId < recentSequenceIds[lowestValueIndex]) {\n      throw;\n    }\n    if (sequenceId > (recentSequenceIds[lowestValueIndex] + 10000)) {\n      throw;\n    }\n    recentSequenceIds[lowestValueIndex] = sequenceId;\n  }\n\n  function getNextSequenceId() returns (uint) {\n    uint highestSequenceId = 0;\n    for (uint i = 0; i < SEQUENCE_ID_WINDOW_SIZE; i++) {\n      if (recentSequenceIds[i] > highestSequenceId) {\n        highestSequenceId = recentSequenceIds[i];\n      }\n    }\n    return highestSequenceId + 1;\n  }\n}",
  "sourcePath": "/home/liuye/Webank/vultron/contracts/Forwarder.sol",
  "compiler": {
    "name": "solc",
    "version": "0.4.26+commit.4563c3fc.Emscripten.clang"
  },
  "schemaVersion": "3.1.0",
  "updatedAt": "2020-05-01T04:18:49.435Z",
  "devdoc": {
    "methods": {}
  },
  "userdoc": {
    "methods": {}
  }
}